:1000000009C043C120C062C11EC01DC01CC01BC0AE
:100010001AC019C011241FBECFE9CDBF10E0A0E661
:10002000B0E0E8E9F3E002C005900D92AA36B1070E
:10003000D9F710E0AAE6B0E001C01D92AE36B107D4
:10004000E1F76BD1A7C1DCCF28E090E048E1392F80
:10005000382730FF04C094279695906801C0969584
:10006000215011F08695F3CF892F0895B19904C0DE
:1000700007C0019719F404C087EE93E0B199F9CF56
:1000800080E48A95F1F781E0B19B80E0B19B05C0E7
:1000900008952150304019F4089527EE33E0B19BC4
:1000A000F8CF08950F931F93B19B06C008E010E0AE
:1000B0000CC0019719F407C087EE93E0B19BF9CF0C
:1000C00008E010E002C008E010E01695CFDF8111D3
:1000D00010680150D1F7812F1F910F910895B199A8
:1000E00005C008C02150304019F404C027EE33E0A9
:1000F000B199F8CFB998882309F4B99A80EC8A9518
:10010000F1F7B998B19B04C00895019719F40895C7
:1001100087EE93E0B19BF9CF08950F931F93182FAB
:10012000B19B09C008E00EC02F5F3F4F83E0283E1F
:10013000380719F406C021E030E0B19BF5CF08E0A4
:1001400001C008E0812F8170CADF16950150D1F7F8
:100150001F910F910895AF92BF92CF92DF92EF92CD
:10016000FF920F931F93CF93DF93B19B04C007C0FF
:10017000019719F404C087EE93E0B19BF9CF20E614
:100180002A95F1F7B99A80EF90E00197F1F7B998C5
:10019000B19B07C00AC0019623E0883E920719F47C
:1001A00004C081E090E0B19BF6CF7CDF8C3E31F063
:1001B000803F21F0853509F05DC02BC0803F79F488
:1001C000C0E6D0E0AA24BB246894A3F8AC0EBD1E00
:1001D000CC246894C3F8EE24E394DD2405C0809118
:1001E0006A00882369F746C0F9901C2D0F2D017015
:1001F000802F75DF8E2D01118D2D71DF37DF801778
:10020000C9F5115011F0F694F1CFCA15DB0561F76D
:1002100031C0C0E6D0E08E01085F1F4F43DF9991E7
:10022000891741F5C017D107C9F73CDF803A19F0AB
:10023000813B01F512C010916B00812F05DF082F63
:10024000812F6BDF80916B008027FEDE182F80915D
:100250006D0063DF812F61DF0DC024DFF5DE182F15
:1002600021DF811721F410926C0088B318BA81E065
:1002700080936B00DF91CF911F910F91FF90EF90D2
:10028000DF90CF90BF90AF9008951F920F920FB65E
:100290000F9211248F9305B600FE07C013BE88B7D6
:1002A000826088BF82E085BF0BC083EC82BF88B7C5
:1002B000826088BF89B7826089BF83E085BF83BFC2
:1002C0008F910F900FBE0F901F9018951F920F9255
:1002D0000FB60F9211242F933F934F935F936F9319
:1002E0007F938F939F93AF93BF93EF93FF9313BE2F
:1002F00088B7826088BF2FDFFF91EF91BF91AF91E8
:100300009F918F917F916F915F914F913F912F912D
:100310000F900FBE0F901F9018950F931F93CF93C0
:10032000DF93C0E6D0E08E01095F1F4F80E0999116
:1003300089278ADEC017D107D1F780936700B99863
:1003400088B7826088BF8AB780648ABF82E085BF31
:100350008BB780648BBF7894A09168004A2F50E0DF
:1003600061E070E0E0E0F0E0B1E09B0180916D00C1
:10037000A81709F49F0186B390E082239323842376
:1003800095230097C1F3B0936A0086B38A238093C4
:080390006D00EBCFF894FFCFE4
:0A039800F2000000000001000D005B
:00000001FF
