:1000000009C0F6C020C015C11EC01DC01CC01BC049
:100010001AC019C011241FBECFE9CDBF10E0A0E661
:10002000B0E0E2EEF3E002C005900D92A836B10711
:10003000D9F710E0A8E6B0E001C01D92AA36B107DA
:10004000E1F74CD1CCC1DCCF282F98E080E048E12B
:10005000382F3227532F517030FD84278695513029
:1000600009F48068915011F02695F2CF089588EE3A
:1000700093E002C0019711F0B199FCCF80E48A951A
:10008000F1F781E0B19B80E020E030E006C02F5F17
:100090003F4F93E0283E390711F0B19BF8CF089508
:1000A0000F931F9388EE93E002C0019711F0B19B6C
:1000B000FCCF08E010E01695DADF811110680150DE
:1000C000D1F7812F1F910F91089528EE33E003C0DF
:1000D0002150304011F0B199FBCFB998882309F431
:1000E000B99A80EC8A95F1F7B99888EE93E002C04E
:1000F000019711F0B19BFCCF08950F931F93082F28
:1001000028EE33E003C02150304011F0B19BFBCF0B
:1001100018E0802F8170D9DF06951150D1F71F911B
:100120000F910895DF92EF92FF920F931F93CF9359
:10013000DF9388EE93E002C0019711F0B19BFCCFF2
:1001400080E68A95F1F7B99A80EF90E00197F1F790
:10015000B99888EE93E002C0019711F0B19BFCCFF3
:100160009FDF8C3E29F0803F19F08535C9F522C00C
:10017000803F21F080916900882391F110E0DD2417
:10018000D394E12FF0E0E05AFF4FF08008E0EE2436
:10019000E394EF208E2D99DF8E2D8D2596DF67DF7E
:1001A0008E15F1F4015011F0F694F1CF1F5F183065
:1001B00041F716C0C0E6D0E073DF9991891781F44A
:1001C00090E0C836D907C1F76BDF803A49F4109246
:1001D00069008091680091DF8091680035DF8DDFD4
:1001E000DF91CF911F910F91FF90EF90DF900895D5
:1001F0001F920F920FB60F9211248F9305B600FE37
:1002000007C013BE88B7826088BF82E085BF0BC07D
:1002100083EC82BF88B7826088BF89B7826089BF5C
:1002200083E085BF83BF8F910F900FBE0F901F900B
:1002300018951F920F920FB60F9211242F933F9390
:100240004F935F936F937F938F939F93AF93BF93DE
:10025000EF93FF9313BE88B7826088BF63DFFF917F
:10026000EF91BF91AF919F918F917F916F915F912E
:100270004F913F912F910F900FBE0F901F901895A7
:1002800097B321E030E002C0220F331F8A95E2F7D6
:10029000922B97BB88B32095282328BB8FEB92E144
:1002A0000197F1F700C00000089597B321E030E016
:1002B00002C0220F331F8A95E2F7822F809589238F
:1002C00087BB99E081E046B350E0422353234115B8
:1002D000510509F080E09150B1F70895CF92DF9277
:1002E000EF92FF920F931F93CF93DF93C0E6D0E07E
:1002F00080E099918927A8DE90E0C736D907C9F731
:100300008093670087B3886187BBC29AC09AB99807
:1003100088B7826088BF8AB780648ABF82E085BF61
:100320008BB780648BBF7894DD2400E010E0C0E0E0
:10033000D0E0EE24FF24CC24C39483E0A1DF83E04B
:10034000B4DF882329F08F2D8D3220F4F39402C07E
:10035000F110FA9484E094DF84E0A7DF882329F089
:100360009E2D9D3220F4E39402C0E110EA948F2D7B
:10037000803178F093E0C132D90738F0D7FE02C05F
:10038000BA9A01C0BA9888E20AC02196BA9A88E05F
:1003900006C0FF2019F4BA98C0E0D0E080E09E2D9E
:1003A000903170F0806193E00132190728F0806489
:1003B000D7FC04C0B89809C00F5F1F4FB89A05C09A
:1003C000EE2019F4B89800E010E0909168009817BA
:1003D00021F0C092690080936800D394AECFF89466
:0203E000FFCF4D
:0803E200F0000000000005001E
:00000001FF
