:100000000C948B090C94A8090C94A8090C94A809C9
:100010000C94A8090C94A8090C94A8090C94A8099C
:100020000C94A5120C94A8090C94A8090C94A80986
:100030000C94A8090C94A8090C94A8090C94A8097C
:100040000C94A8090C94A8090C94A8090C94A8096C
:100050000C94A8090100000000000000000000004E
:100060000000000000000000000000000000000090
:100070000020FF0D0000030300040700050C00082A
:100080001400061A000A2400082C00032F00043371
:1000900000043700053C00084400034700044B00FF
:1000A000034E00035100065700065D00066300067C
:1000B0006900066F00067500067B00068100068752
:1000C00000068D00039000039300089B0008A30026
:1000D00008AB0005B0000ABA0007C10007C8000756
:1000E000CF0008D70006DD0006E30008EB0008F3A8
:1000F0000003F60003F900070001060601090F01DD
:10010000071601081E01062401082C010733010609
:100110003901063F01074601074D010A5701075EF5
:1001200001066401076B01046F010372010476018B
:10013000087E01058301058801068E0106940105EC
:100140009901069F0106A50104A90106AF0106B5A4
:100150000103B80103BB0106C10103C4010ACE01BA
:1001600006D40106DA0106E00106E60104EA01050B
:10017000EF0104F30106F90106FF01080702060D6D
:1001800002061302051802061E02032102062702B8
:10019000082F02073602063C0206420207490208FF
:1001A0005102075802075F02086702076E020876CD
:1001B00002067C02068202068802068E020593026F
:1001C000079A0207A10209AA0206B0020ABA020AA5
:1001D000C4020ACE020AD8020AE2020AEC020AF6B5
:1001E000020A00030A0A030A14030A1E030A280368
:1001F0000A32030A3C03074303064903054E03037F
:100200005103085903065F03066503066B03067175
:1002100003077803098103078803068E0307950304
:10022000079C0307A30306A90306AF0308B7030649
:10023000BD0307C40306CA0303CD0303D00303D3DE
:10024000030BDE030AE80308F00307F70307FE03C6
:10025000060404080C04071304071A040721040603
:100260002704082F040635040B4004064604074DF6
:1002700004075404075B04086304096C040874044D
:10028000087C04088404068A04079104069704067F
:100290009D0409A60407AD0408B50407BC040BC7F8
:1002A000040BD20408DA0409E30407EA0407F104A2
:1002B0000BFC04070305060905060F0506150505D1
:1002C0001A05072105062705093005053505063BF2
:1002D00005064105064705064D05085505075C0559
:1002E000066205076905066F05057405067A0506A9
:1002F0008005098905068F05079605069C0509A551
:100300000509AE0507B50508BD0506C30505C80501
:1003100008D00506000000000000000000007C017D
:10032000000000001C0000001C0000000000400055
:10033000D0017C005000F0015C0010000000300192
:100340002801FC034801C80000003C002400BC0157
:1003500060003000EC012001E00100000000E0003E
:10036000980124012401C8008000600100001C00E5
:1003700000000000FC010202000000000603F8007B
:100380000000240018003C00180024000000200099
:1003900020002000FC0120002000200000000003BD
:1003A000000000004000400040000000000100008C
:1003B0000003F0000C000000F80004010401040137
:1003C000F800000004010401FC010001000100002C
:1003D000080184014401240118010000880024015F
:1003E00024012401D8000000600050004800FC01F6
:1003F000400000001C01140114011401E000000081
:10040000F8002C0124012401C400000004000401B0
:10041000C40034000C000000D80024012401240191
:10042000D8000000180124012401A401F8000000F4
:100430001001000000001003000000002000200058
:100440005000500050008800000000005000500094
:100450005000500050005000000000008800500084
:100460005000500020002000000000000400640143
:1004700014000C000000F00118030C06E404A404AE
:10048000E4048402C80070000001E0005800440049
:100490005800E00000010000FC01240124012401B7
:1004A000D80000000000700088000401040104016D
:1004B00088000000FC010401040104018C01F80023
:1004C00000000000FC01240124012401240100009B
:1004D000FC0124002400240000000000F8008C012E
:1004E000040124012401E80000000000FC012000B8
:1004F000200020002000FC0100000000FC0100049E
:100500000004FC0300000000FC01200050008800F3
:10051000040100000000FC010001000100010001D5
:100520000000FC0118006000800060001800FC0161
:1005300000000000FC010800300040008000FC01C9
:100540000000F8008C01040104018C01F800000097
:100550000000FC0124002400240018000000F80022
:100560008C01040104018C02780000000000FC01F1
:100570002400240064009800000100009800240179
:1005800024012401C80004000400FC01040004004C
:1005900000000000FC000001000100010001FC005F
:1005A0000C003000C0000001C00030000C000C0046
:1005B0007000800170000C007000800170000C0061
:1005C000000004018C01700070008C010401000027
:1005D000040008001000E00110000800040184017C
:1005E000640134010C01040100000000FE0302025A
:1005F00000000C00F000000300000202FE030000F7
:1006000000001000080004000400080010000000B2
:1006100000040004000400040004000002000400C0
:100620000000000000008001500150015001E00175
:100630000000FE01100110011001E0000000E000C8
:100640001001100110010000E00010011001100164
:10065000FE010000E0005001500150016001000067
:100660001000FE0112000000E0001005100510054A
:10067000F0030000FE01100010001000E001000077
:10068000F20100000004F20700000000FE0140003B
:10069000A000100100000000FE0100000000F001B9
:1006A000100010001000E001100010001000E00128
:1006B0000000F001100010001000E0010000E00058
:1006C000100110011001E0000000F00710011001FE
:1006D0001001E0000000E000100110011001F0071F
:1006E0000000F00110001000000030015001500126
:1006F000D0011000FC01100110010000F000000109
:1007000000010001F00100003000C0000001C00045
:100710003000000070008001600010006000800167
:10072000700000001001A0004000A00010010000B7
:100730003004C0040003C00030000000100190012C
:1007400050013001000020002000DE030202000002
:100750000000FE07000000000202DE03200020006F
:100760000000000040002000200040004000200069
:1007700000000000FC01300058008C04040300005D
:100780000000FC00960112011201EC000000E000E4
:100790008C0112019201FC00040004000C00F00125
:1007A000080004000C0004000200040004000C0017
:1007B000F00108000400040004000D00F00109002D
:1007C00004000C000000E0001001FE071001E00032
:1007D00000000000F00010011001D0001001100115
:1007E000F000000090017000C0043005100300000C
:1007F0000000F8008C0104078C01F80000000000E4
:100800000000E000100110071001E0000000F800F7
:100810008C010405040704000000E000100110052D
:10082000100710000000FC01240024002400000434
:100830000004FC03120012000000000074002C00F1
:100840002000F00110010000000030002E00200008
:10085000E00120000000000004003C000400E4016E
:1008600014000804F003000000001001D000A001F3
:10087000C00100060000FF010101010101010101A9
:1008800001010101FF0100000000FF010101010160
:100890000101010101010101FF0100000000FF0150
:1008A000010101010101010101010101FF0100003C
:1008B0000000FF010101010101010101010101012C
:1008C000FF0100000000FF01010101010101010120
:1008D00001010101FF0100000000FF010101010110
:1008E0000101010101010101FF0100000000FF0100
:1008F000010101010101010101010101FF010000EC
:100900000000FF01010101010101010101010101DB
:10091000FF0100000000FF010101010101010101CF
:1009200001010101FF0100000000FF0101010101BF
:100930000101010101010101FF0100000000FF01AF
:10094000010101010101010101010101FF0100009B
:100950000000FF010101010101010101010101018B
:10096000FF0100000000FF0101010101010101017F
:1009700001010101FF0100000000FF01010101016F
:100980000101010101010101FF01000000009001CE
:100990007000C0003001100100000000E0031005ED
:1009A00010051005E0040000E00010011001100126
:1009B0000004F20700000000F800AC01240124014B
:1009C000AC01F80000000000F001500148014001B6
:1009D00000000000480148015001F0000000000044
:1009E000FC0148004800480030000000FE071001EC
:1009F00010011001E00000007000880004010401F3
:100A0000040188000000FC01040008001000080038
:100A10000400FC0100000000F0071000200010009E
:100A2000F00100000004F007100508051001E000C7
:100A300000000401040104010401880070000000AA
:100A400070008800040124010401880000000401F2
:100A5000240104010401880070000000FC0124014D
:100A60002501240124010000FC01250124012501A8
:100A7000240104000400FC01240024042404C00315
:100A800000000000FC010400050004000400000058
:100A90007000A800240124012401880000009800AF
:100AA000240124012401C8000000FC010000010011
:100AB000FC0101040004FC03000000018001FC00B3
:100AC00004000400FC01200120012001C0000000FE
:100AD0000000FC01200020002000FC01200120017A
:100AE0002001C00004000400FC01240024002400B4
:100AF000C00100000000FC012000310068008401FA
:100B000000010000FC018000610010000800FC01F1
:100B100004001801E101E100190004000000FC01DB
:100B2000000100070001FC01000000000001E000DE
:100B3000580044005800E00000010000FC012401BE
:100B400024012401C00000000000FC012401240154
:100B50002401D80000000000FC010400040004008F
:100B600004000000000780017C0104010401FC0175
:100B700000070000FC0124012401240124010001DC
:100B80008401680030002000FC0120003000680073
:100B90008401000100008800240124012401D80000
:100BA0000000FC018000600010000800FC01000053
:100BB000FC018000610011000800FC010000FC0144
:100BC00020003000680084010001000180017C00E9
:100BD00004000400FC01000000000000FC011800FB
:100BE0006000800060001800FC0100000000FC01B3
:100BF0002000200020002000FC0100000000F80080
:100C00008C01040104018C01F80000000000FC01CB
:100C10000400040004000400FC0100000000FC01CA
:100C20002400240024001800000070008800040143
:100C300004010401880004000400FC010400040015
:100C4000000004001801E001E000180004000000AA
:100C5000700088008800FC01880088007000000097
:100C600004018C01700070008C0104010000000080
:100C7000FC010001000100010001FC01000700006F
:100C80001C00200020002000FC0100000000FC01EE
:100C9000000100010001FC01000100010001FC0154
:100CA00000000000FC01000100010001FC01000146
:100CB00000010001FC01000700000400FC0120010C
:100CC00020012001C00000000000FC0120012001E3
:100CD0002001C0000000FC0100000000FC01200118
:100CE00020012001C0000000000088002401240130
:100CF0002401A80070000000FC012000F8008C0115
:100D000004010401040188007000000000001801C3
:100D1000E40064002400FC01000000008001500198
:100D200050015001E0010000FC0014011201120109
:100D3000E2000000F00150015001F001000000004D
:100D4000F00110001000100000000003F00110017D
:100D50001001F00100030000E000500150015001BB
:100D600060010001900160004000F001400060005F
:100D7000900100010000100150015001B00100007D
:100D8000F001800140003000F0010000F001860118
:100D900044003600F0010000F001400060009001C6
:100DA000000100018001F00010001000F0010000BF
:100DB000F0013000C000C0003000F0010000000071
:100DC000F001400040004000F00100000000E000A1
:100DD000100110011001E0000000F00110001000EF
:100DE0001000F00100000000F007100110011001D8
:100DF000E0000000E00010011001100100001000F0
:100E00001000F0011000100000003004C0040003C6
:100E1000C00030000000E00010011001FE071001CA
:100E20001001E000000000001001A0004000A00040
:100E300010010000F001000100010001F0010003B9
:100E40000000700040004000F00100000000F001D0
:100E500000010001F00100010001F00100000000AC
:100E6000F00100010001F00100010001F0010003A8
:100E700010001000F00140014001C001000000001E
:100E8000F00140014001C0010000F001000000003D
:100E9000F00140014001C0010000000010015001BC
:100EA0005001E0000000F0014000E00010011001DE
:100EB0001001E00000003001D0005000F0010000FF
:100EC0000100000000000000000000000000000021
:100ED000000000000000000000000000002B3A2885
:100EE00000000F0F00081700081F00082700093036
:100EF000000F3F000F4E000F5D000F6C000F7B00D6
:100F00000F8A000F99000FA8000FB7000FC6000846
:100F100000000000000000700000000070000000F1
:100F200000700000000070000000007000000080F1
:100F3000FF0F000080FF0F000080FF0F0000007017
:100F40000000000070000000007000000000700051
:100F50000000007000000000000000000000000021
:100F600000000000000000000018000000F01F005A
:100F70000000F00F000000F0010000000000000081
:100F80000000000000000000000070000000007081
:100F90000000000070000000007000000000700001
:100FA00000000070000000000000000000000000D1
:100FB00000000000000000006000000000F00000E1
:100FC0000000F000000000600000000000000000D1
:100FD000000000000000003F000000F03F00008023
:100FE000FF0F0000F8FF000080FF0F0000F8FF0077
:100FF0000080FF0F0000E07F000000E0070000001D
:101000000000000000000000000000E0FF070000FA
:10101000FCFF3F0000FEFF7F00001F00F8000007FC
:1010200000E000000700E000000700E000001F00F3
:10103000F80000FEFF7F0000FCFF3F0000E0FF071C
:1010400000000000000000000000000000000000A0
:101050000000000000000000000000300000000060
:10106000780000000038000000001C00000000FFB5
:10107000FFFF0000FFFFFF0000FFFFFF0000000078
:101080000000000000000000000000000000000060
:10109000000000000000000000000000040000004C
:1010A000000E00F800000F00FE00000780FF0000A7
:1010B00007C0E7000007F0E100000778E000000F3C
:1010C0003EE00000FE0FE00000FE07E00000F80137
:1010D000E000000000E00000000000000000000050
:1010E0000000000000000006006000000E0070001C
:1010F000000F00E00000071CE00000071CE00000FB
:10110000071CE00000071EE000000F3FF00000FE9B
:1011100077780000FCF37F0000F8E13F000000C09A
:101120000F000000000000000000000000000000B0
:10113000000000C003000000F803000000BE030030
:1011400000808F030000C083030000F080030000D4
:101150007C800300001E80030000FFFFFF0000FFF3
:10116000FFFF0000FFFFFF00000080030000008081
:10117000030000000000000000000000000000006C
:10118000000000006000000000F00000F00FE00030
:1011900000FF0FE00000FF0FE00000071EE000006E
:1011A000071EF00000073C78000007FC7F000007E6
:1011B000F81F000007E00F00000000000000000022
:1011C0000000000000000000000000000000FE071A
:1011D0000000C0FF3F0000F0FF7F0000F80CF800A7
:1011E000003C0EE000001E0EE000000E0EE00000CD
:1011F0000F1EF0000007FC7F000007F83F00000012
:10120000E00F0000000000000000000000000000EF
:1012100000000000000000000700000000070000C0
:1012200000000700F000000780FF000007F0FF004B
:101230000007FE070000C73F000000F7070000009E
:10124000FF000000003F000000000F000000000051
:10125000000000000000000000000000000000008E
:1012600000000000801F0000F8C13F0000FEE37F87
:101270000000FE77F000000F3EE00000071CE000D9
:1012800000073CE000000F7EF00000FEF77F00004A
:10129000FEE33F0000F8801F000000000000000097
:1012A0000000000000000000000000000000F00747
:1012B000000000FC1FE00000FE3FE000000F78F09F
:1012C00000000770700000077078000007703C0095
:1012D000001FF01F0000FEFF0F0000FCFF030000D6
:1012E000E07F00000000000000000000000000009F
:1012F000000000000000000000C000600000E001ED
:10130000F00000E001F00000C000600000000000FC
:1013100000000000000011241FBECFE5D4E0DEBFB6
:10132000CDBF10E0A0E6B0E0E6E8F2E302C0059031
:101330000D92A23BB107D9F712E0A2EBB0E001C0D9
:101340001D92A93CB107E1F70E9451130C94411979
:101350000C940000813019F0823059F405C06C5AA9
:101360007F4FFB01849108956054714FFB0184917C
:10137000089580E00895FF920F931F93182FF62E83
:101380006DE170E00E94AA09082F812F6EE170E0E4
:101390000E94AA09202F0F1508F42F2D821708F498
:1013A000282F30E0201B3109B901660F771F620F2B
:1013B000731F6E5D7F4F812F0E94AA091F910F91AD
:1013C000FF900895FF920F931F93CF93DF93182FF1
:1013D000F62E6DE170E00E94AA09082F812F6EE1C0
:1013E00070E00E94AA09202F0F1508F42F2D8217F4
:1013F00008F4282F30E0201B3109E901CC0FDD1F54
:10140000C20FD31FBE01605E7F4F812F0E94AA09C9
:10141000082FBE016F5D7F4F812F0E94AA09582FB0
:1014200040E0202F30E0242B352BC901DF91CF91F4
:101430001F910F91FF9008950E943F170E9452172D
:1014400008958F929F92AF92BF92CF92DF92EF92C8
:10145000FF920F931F93DF93CF9300D0CDB7DEB7EA
:10146000182FF62E66956695669570E0882777FDAD
:101470008095982F29834A830E9485170E948C1893
:101480000E945717E62E8F2C99242981820E911CD9
:10149000B4016F5F7F4F83E0759567958A95E1F79B
:1014A000882777FD8095982F0E9485170E941C0A37
:1014B0005E2D550F550F550F80E090E070E021E054
:1014C00030E04A815F1568F0E52FF0E0E815F90596
:1014D00044F4F901082E02C0EE0FFF1F0A94E2F750
:1014E0007E2B01965F5F8830910561F7862F90E033
:1014F000FC01B3E0EE0FFF1FBA95E1F720E030E00A
:1015000050E0A1E0AA2EB12C6901CE0EDF1EC81456
:10151000D90444F46501022E02C0CC0CDD1C0A94EF
:10152000E2F75C292F5F3F4F2830310569F724E54A
:10153000AE2DA29F90011124002339F4F12EA12F8A
:10154000B0E0A40FB11D70951EC0F12EA12FB0E028
:10155000A40FB11D08C0E20FF31FEF52FF4FC08070
:10156000C72AC082F394EF2DF0E0AE17BF079CF7B7
:10157000CC24CA940EC0E20FF31FEF52FF4FC0807D
:10158000C722C082F394EF2DF0E0AE17BF079CF79F
:10159000CC247E2D7F5F24E5A22E212F30E0240F66
:1015A000311D12C0AA2D7A9FF0011124F12EEF52A5
:1015B000FF4F04C0AE0FBF1FCC92F394AF2DB0E02D
:1015C0002A173B07BCF77F5F761760F3E61688F5AE
:1015D00064E570E0869F9001879F300D969F300DE7
:1015E0001124002331F4812F90E0840F911D509538
:1015F0001BC0812F90E0840F911D08C0E20FF31FE4
:10160000EF52FF4F4081452B40831F5FE12FF0E0F9
:101610008E179F079CF70DC0E20FF31FEF52FF4F8D
:101620004081452340831F5FE12FF0E08E179F0725
:101630009CF70F900F90CF91DF911F910F91FF902A
:10164000EF90DF90CF90BF90AF909F908F900895D4
:1016500098E0C09887FF02C0C19A01C0C19822E1FA
:101660002A95F1F700C0C09A915011F0880FF1CF80
:1016700008951F93182FC29881E20E94280B812F92
:10168000805F0E94280B80E20E94280BC29A1F9163
:101690000895CF93DF93C29880E80E94280B80E4DE
:1016A0000E94280BC29AC1EDD0E089910E94280BBC
:1016B00082E0C93CD807C9F780E00E94280BC29895
:1016C000DF91CF910895E1EDF0E0119282E0E93CE5
:1016D000F807D9F708950F931F93DF93CF930F92D5
:1016E000CDB7DEB7082F162F843508F045C060331C
:1016F00008F042C066956695669570E0882777FD8C
:101700008095982F49830E9485170E941C0A70E0DB
:1017100024E530E0629FC001639F900D729F900DA1
:101720001124800F911D709561957F4F23E0660F06
:10173000771F2A95E1F7610F711D21E030E002C0AB
:10174000220F331F6A95E2F74981442349F0FC01D7
:10175000EF52FF4F413061F48081822B80830CC0B7
:10176000FC01EF52FF4F209580812823208304C085
:101770009081922381E009F480E00F90CF91DF9176
:101780001F910F910895AF92BF92CF92DF92EF9287
:10179000FF920F931F93DF93CF930F92CDB7DEB7D6
:1017A000F82EE62E142F002349F4082FA82EBB2470
:1017B000A40EB11CD62EDA94D20E16C090E070E0C2
:1017C00050E030E001E010E00E94210A28C0802FA4
:1017D0006E2D41E029830E946B0B802F6D2D41E01F
:1017E0000E946B0B0F5F2981402F50E04A155B056B
:1017F00074F3CE2CDD24C20ED11C1F0D0BC08F2D17
:101800006E2D41E00E946B0B812F6E2D41E00E94F6
:101810006B0BE3942E2D30E02C153D0584F30F90D7
:10182000CF91DF911F910F91FF90EF90DF90CF90BC
:10183000BF90AF9008950F9300E00E94210A0F918E
:1018400008952F923F924F925F926F927F928F9264
:101850009F92AF92BF92CF92DF92EF92FF920F933F
:101860001F93DF93CF93CDB7DEB763970FB6F8948E
:10187000DEBF0FBECDBFD82E6987F42E122F202ECB
:10188000822F6FE170E00E94AA09082F812F6F2D2F
:101890000E94BB098C83812F6DE170E00E94AA0930
:1018A000E82E812F6EE170E00E94AA09C82E602FF9
:1018B00066956695669570E0882777FD8095982FE8
:1018C0000E9485170E948C180E9457176983802FE9
:1018D000877019F0262F2F5F2983812F6F2D0E948B
:1018E000E2095981452F50E05E834D832C2D30E075
:1018F0002F5F3F4F2E1931095901AA0CBB1CA20EB4
:10190000B31EA0E2B0E0AA0EBB1EFC014E9FC001B8
:101910004F9F900D5E9F900D1124A80EB91E22209E
:1019200021F1E0E0F0E020E030E040E050E060E075
:1019300070E080E090E0A1E0EA2EF12C13C0D70126
:101940000E2E02C0AA0FBB1F0A94E2F7CB2ECC0CBE
:10195000CC082A2B3B2B4C295C296C297C298C290F
:101960009C293196E01758F308C020E030E040E0B1
:1019700050E060E070E080E090E009850E94CE16C3
:101980002A873B874C875D876E877F87888B998BFB
:101990002D2D30E04C81240F311D3B832A83BB8ADF
:1019A000AA8A312E89C0832DB5010E94AA09282F49
:1019B00030E040E050E060E070E080E090E0012F37
:1019C0000E94CE16C22A932A842A752A662A572A8A
:1019D000F82AE92A185F0894A11CB11C4394598184
:1019E000451608F38A899B89AD81BE818A0F9B1FAA
:1019F0009B8B8A8B2C2D392D482D572D662D752DBF
:101A00008F2D9E2D09850E94CE16D901142F052FEA
:101A1000C62EA72E982E892EEF80F884E1EDF0E0F7
:101A2000EE0EFF1E6D2C7724222059F12A852A23E1
:101A30003B853B234C8541235D8550236E856C217E
:101A40007F857A218889892199899821F9ECAF2E9F
:101A5000F2E0BF2EA60CB71CF701EA88FB884F0105
:101A6000F22FF095D401EC91EF23EC9308E00E9463
:101A70005D16E4E5F0E08E0E9F1E8A149B0481F74C
:101A800018C0E9ECAE2EE2E0BE2EA60CB71CF701A2
:101A9000EA88FB884F01D401EC91E22BEC9308E03B
:101AA0000E945D16E4E5F0E08E0E9F1E8A149B04F2
:101AB00091F7FB8AEA8AD3942D2D30E038872F8363
:101AC0004A815B81241735076CF4AA88BB8810E033
:101AD000CC2499248824772466245524FF24EE24DA
:101AE00044247DCF8C8163960FB6F894DEBF0FBE81
:101AF000CDBFCF91DF911F910F91FF90EF90DF90BD
:101B0000CF90BF90AF909F908F907F906F905F909D
:101B10004F903F902F9008957F928F929F92AF9217
:101B2000BF92CF92DF92EF92FF920F931F93CF93CA
:101B3000DF93882E162F5A01F22ED02E822F6FE1BE
:101B400070E00E94AA09782EC82C992427C08A0D1B
:101B50009B1DFC0100818F2D602F0E94BB09CC2DA5
:101B6000D0E0C80FD11DC535D1057CF0DD2019F0BE
:101B7000170DC82C0AC08F2D60E20E94BB0990E0AF
:101B80008D5A9F4F8C179D07ACF08C2D612F402FE5
:101B90002F2D0E2D0E94210CC80E9394892D90E0BC
:101BA000F50101900020E9F73197EA19FB098E173A
:101BB0009F0768F28C2DDF91CF911F910F91FF90BD
:101BC000EF90DF90CF90BF90AF909F908F907F90DD
:101BD0000895DF92EF92FF920F931F93CF93DF93BD
:101BE0008C01D62EEC0109900020E9F72197C81B43
:101BF000D90BEE24FF2408C0E00FF11F8D2D60816A
:101C00000E94BB09F80EE394EE2DF0E0EC17FD07FF
:101C100098F38F2DDF91CF911F910F91FF90EF904F
:101C2000DF900895EF92FF920F931F93182FE62EE7
:101C3000F42E41502F2D00E00E94C30B812F6E2DFA
:101C400040E00E946B0B012F01500F0D802F6E2D75
:101C500040E00E946B0BEA94EF0C812F6E2D40E068
:101C60000E946B0B802F6E2D40E00E946B0B1F912A
:101C70000F91FF90EF900895882329F0909A919A00
:101C8000929A939A0895909891989298939808951B
:101C900081B38F6081BB87B38F6087BBC298C398C5
:101CA0008CEC9AE00197F1F700C00000C39A8CEC2D
:101CB0009AE00197F1F700C00000C29881E20E940B
:101CC000280B83EC0E94280B84E00E94280B80E202
:101CD0000E94280B8CE00E94280BC29A83E00E948D
:101CE000390B089524B333B381E090E002C0880F2C
:101CF000991F3A95E2F78095822384BB0895282F97
:101D000098E080E048E1382F3227532F517030FDA2
:101D100084278695513009F48068915011F02695FA
:101D2000F2CF0895882319F0AA98A29A0895AA9844
:101D3000A298089581E00E94920E8FE295E00197AB
:101D4000F1F780E00E94920E9DED9A95F1F7000068
:101D500093B3E9E8F4E03197F1F781E092FD80E098
:101D600008951F93182F81E00E94920E84E08A95B7
:101D7000F1F7112319F080E00E94920E8DED8A9503
:101D8000F1F7000080E00E94920E1F91089581E01B
:101D90000E94920E84E08A95F1F780E00E94920EF4
:101DA00085E28A95F1F793B383E98A95F1F700C04C
:101DB00081E092FF80E00895FF920F931F93CF93ED
:101DC000DF93F82EC0E0D0E001E010E098010C2E87
:101DD00002C0220F331F0A94E2F78F2D82230E9444
:101DE000B10E2196C830D10589F7DF91CF911F91AF
:101DF0000F91FF900895FF920F931F93CF93DF935E
:101E0000C0E0D0E0FF2401E010E00E94C70E88236C
:101E100041F098010C2E02C0220F331F0A94E2F702
:101E2000F22A2196C830D10581F78F2DDF91CF910D
:101E30001F910F91FF9008950E949A0E882331F010
:101E40008CEC0E94DC0E84E40E94DC0E0895CF929C
:101E5000DF92EF92FF920F931F93DF93CF93CDB753
:101E6000DEB729970FB6F894DEBF0FBECDBF0E9434
:101E70009A0E882309F440C08CEC0E94DC0E8EEB95
:101E80000E94DC0E8E010F5F1F4F8AE0C82ED12CFE
:101E9000CC0EDD1E78010E94FB0EF70181937F01BD
:101EA000EC15FD05C1F780E0F80191918F018927BC
:101EB0000E947F0E0C151D05B9F78823E9F49A815D
:101EC00080E0698170E0682B792B882777FD809509
:101ED000982F0E94851720E030E040E85DE30E94E3
:101EE000291820E030E040E251E40E9429180E94C5
:101EF0003F170E94521702C060E070E0CB012996A4
:101F00000FB6F894DEBF0FBECDBFCF91DF911F910A
:101F10000F91FF90EF90DF90CF900895CF93DF93D4
:101F2000FC01EB01CB0164E670E00E94C7188CE96C
:101F30009FEF689F9001699F300D789F300D1124AD
:101F40002C0F3D1F161617061CF4605D608302C03F
:101F500080E28083C9016AE070E00E94C718862F82
:101F6000805D818346EF5FEF649FC001659F900DA8
:101F7000749F900D1124820F931F805D8383DF91E6
:101F8000CF9108951F93CF93DF93EC01CB01BA015A
:101F900028E730E040E050E00E94DA18122F622F6C
:101FA000732FCA012CE330E040E050E00E94DA18C1
:101FB0008CE3289F802D1124181B4AE0822F642F68
:101FC0000E94BB18982F905D9883205D36EF839F09
:101FD000802D1124280F2983812F0E94BB18982F50
:101FE000905D9B83105D839F302D1124130F1C8304
:101FF000DF91CF911F910895EF920F931F93182FA8
:1020000080E060E043E52EE001E00E94C30B80E049
:102010006DE043E522E200E00E94C30BE12FF0E017
:10202000EE0FFF1FEA56FF4F4081518184E061E0CF
:1020300021E0EE24E3940E948C0D1F910F91EF900C
:102040000895CF92DF92EF92FF920F931F93CF9359
:10205000DF930E94630B8091B0008B3009F4B0C015
:102060008C3068F4813009F4ABC0813008F474C05E
:10207000823009F401C1833009F0C1C172C18F31CE
:1020800009F46FC1803228F48551823008F0B7C15D
:10209000F3C0843609F0B3C1AB9B05C080E060E0BB
:1020A00046E650E004C080E060E04BE650E021E00E
:1020B00000E0EE240E948C0D6091B6007091B70094
:1020C00081E790E00E948E0F81E790E061E00E943E
:1020D000E90D94E5981B892F60E041E750E021E08D
:1020E00000E0EE240E948C0D8BE461E043E00E944E
:1020F000120E4091B2005091B3006091B400709103
:10210000B50080E690E00E94C20FC0E6D0E017E084
:10211000FF2448E7C42E40E0D42E8F2D823071F486
:102120008091C200882341F0812F815066E04C2DC0
:1021300022E000E00E94210C195F08C0812F68E0B6
:10214000488122E000E00E94210C105FF394219668
:102150009F2D953011F753C138E9C32E30E0D32EAF
:1021600011E0C0E0D0E0612F61508091CA009091F1
:10217000CB008C179D0789F480E043E52EE000E05A
:102180000E94C30BFE01EE0FFF1FE856FF4F408178
:10219000518184E0612F21E007C0F6014081518127
:1021A00084E0612F21E000E0EE240E948C0D219656
:1021B000125F82E090E0C80ED91E1B32A1F61FC14B
:1021C00081E00E94FC0F11E08091B0008B3009F09B
:1021D00010E083E061E14DE42DE0012F0E94C30B8C
:1021E0004091A7005091A80088E062E121E000E062
:1021F000E12E0E948C0D62E14AE750E021E00E944E
:102200008C0DF82E6091B8007091B90081E790E0D4
:102210000E948E0F8F2D62E141E750E021E00E9485
:102220008C0D895063E143E00E94120E4091AE0094
:102230005091AF0088E06EE121E0EE240E948C0D09
:102240006EE14AE750E021E00E948C0D182F60916A
:10225000B6007091B70081E790E00E948E0F812F49
:102260006EE141E750E021E00E948C0D89506FE162
:1022700043E00E94120EC3C082E00E94FC0F8091D6
:10228000B000823061F46091CA008CE0689F602DDC
:1022900011246F5E83E04DE42DE000E009C06CE0A6
:1022A000869F602D11246B5E83E04DE42DE001E0FC
:1022B0000E94C30B11E08091B000853109F010E05D
:1022C00040919E0050919F0088E062E121E000E093
:1022D000E12E0E948C0D62E14AE750E021E00E946D
:1022E0008C0DC82E4091BA005091BB006091BC008B
:1022F0007091BD0080E690E00E94C20F8C2D62E1DB
:1023000040E650E021E00E948C0D11E08091B00089
:10231000863109F010E04091A0005091A10088E0C2
:102320006EE121E000E0E12E0E948C0D6EE14AE7B3
:1023300050E021E00E948C0DC82E4091BE005091CB
:10234000BF006091C0007091C10080E690E00E94E3
:10235000C20F8C2D6EE140E650E021E00E948C0D12
:102360004EC083E00E94FC0F11E08091B0008F31DD
:1023700009F010E083E061E14DE42DE0012F0E94BF
:10238000C30B4091AE005091AF0088E062E121E0C4
:1023900000E0E12E0E948C0D62E14AE750E021E06E
:1023A0000E948C0DC82E4091B2005091B3006091F4
:1023B000B4007091B50080E690E00E94C20FC0E6C4
:1023C000D0E0FF249F2D923069F48091C2008823D1
:1023D00021F08C2D62E14AE308C081E06AE30E94AB
:1023E000BB0907C08C2D62E1488121E0012F0E94CA
:1023F000210CC80EF3942196EF2DE53019F70E94B9
:10240000490BDF91CF911F910F91FF90EF90DF90DB
:10241000CF9008951F9323B330E002C035952795E0
:102420008A95E2F7E62FF0E020FF08C0E353FF4F64
:102430008081815010828930A0F026C0E353FF4F85
:1024400080818B3058F08DEF9FEAA1E08150904061
:10245000A040E1F700C000C012E004C08F5F80839D
:1024600013C011E08091C300882391F42091C8002B
:102470003091C9002837310559F41092C9001092E3
:10248000C80081E00E943C0E10E0812F1F9108954A
:102490001092C9001092C80081E00E943C0EF5CF56
:1024A0008091B2009091B300A091B400B091B500BA
:1024B0002091BA003091BB004091BC005091BD000A
:1024C00082179307A407B5078CF02091BE003091C6
:1024D000BF004091C0005091C10082179307A4072C
:1024E000B50724F481E08093C30008951092C300DF
:1024F00008958091CC00882311F585E08093CC006D
:102500000E94270F9093B7008093B6000E941C0F83
:102510002091B8003091B9008091B6009091B70039
:10252000AB9B07C02E5F3F4F2817390744F4AB9889
:1025300006C022503040821793070CF4AB9A80916A
:10254000CC0081508093CC0008951F920F920FB65B
:102550000F9211242F938F939F93AF93BF9387EE86
:102560009AEE9DBD8CBD88B7846088BF81E0809362
:10257000C4008091C20080958093C2008091B20017
:102580009091B300A091B400B091B5000196A11D47
:10259000B11D8093B2009093B300A093B400B093A8
:1025A000B500803023EA920722E0A20720E0B207BC
:1025B00044F01092B2001092B3001092B400109246
:1025C000B5008091C5009091C600009749F480E164
:1025D0009EE09093C6008093C50081E08093C70081
:1025E0008091C5009091C60001979093C60080939A
:1025F000C5008091C8009091C9008837910528F4E2
:1026000001969093C9008093C800BF91AF919F91AC
:102610008F912F910F900FBE0F901F90189588EB00
:1026200090E060E070E042E050E00E9410198AEB18
:1026300090E062E070E044E050E00E9410198EEB00
:1026400090E066E070E044E050E00E94101982EBF8
:1026500090E06AE070E044E050E00E9410190895B4
:1026600088EB90E060E070E042E050E00E942019CA
:102670008AEB90E062E070E044E050E00E942019B4
:102680008EEB90E066E070E044E050E00E9420199C
:1026900082EB90E06AE070E044E050E00E94201994
:1026A00008954F925F926F927F928F929F92AF9216
:1026B000BF92CF92DF92EF92FF920F931F93CF932F
:1026C000DF930E940F138FEF8ABB87BB84BB81BB54
:1026D0008EB585608EBD89B7846089BF88B78460F8
:1026E00088BF87EE9AEE9DBD8CBD0E94480E0E9469
:1026F000211081E00E943C0E84B3806F84BB85B3BF
:10270000806F85BB78940E94720E0E941C0F85E03A
:102710008093CC00C1E0D0E0B4E68B2E912CA2E0F7
:10272000CA2ED12CFFEFEF2EF2EAFF2EF2E00F2F90
:10273000112DE0E96E2EE1E07E2E7FE1A72E6BE009
:10274000562E54E6B52E44244A9486E060E00E945A
:102750000A12882309F4F5C09091B000953109F46C
:1027600052C0963138F49230F1F19B30F9F0992350
:1027700069F0E7C09F3109F4AFC0943621F096317B
:1027800009F0DFC075C01092B000D9C08091CA00B6
:102790009091CB0001979093CB008093CA0097FF54
:1027A000CEC0D092CB00C092CA00C9C02091B80060
:1027B0003091B900813019F42F5F3F4F02C02B5F79
:1027C0003F4F3093B9002093B8008091B8009091AA
:1027D000B90021E0813992070CF4B1C09092B900A0
:1027E0008092B800ACC08091CA009091CB00019754
:1027F0009093CB008093CA0097FFA1C0D093CB00E9
:10280000C093CA009CC02091BA003091BB00409197
:10281000BC005091BD00813029F428583F4F4F4FE4
:102820005F4F04C020553B4F4F4F5F4F2093BA007E
:102830003093BB004093BC005093BD008091BA0020
:102840009091BB00A091BC00B091BD00803023EA04
:10285000920722E0A20720E0B2070CF470C01092A9
:10286000BA001092BB001092BC001092BD0067C06D
:102870002091BE003091BF004091C0005091C10036
:10288000813029F428583F4F4F4F5F4F04C02055E7
:102890003B4F4F4F5F4F2093BE003093BF0040939C
:1028A000C0005093C1008091BE009091BF00A091E4
:1028B000C000B091C100803023EA920722E0A20755
:1028C00020E0B207E4F11092BE001092BF00109217
:1028D000C0001092C10033C02091B2003091B3000B
:1028E0004091B4005091B500813029F428583F4FF1
:1028F0004F4F5F4F04C020553B4F4F4F5F4F2093CA
:10290000B2003093B3004093B4005093B50080916F
:10291000B2009091B300A091B400B091B5008030A6
:1029200023EA920722E0A20720E0B20744F01092C7
:10293000B2001092B3001092B4001092B5000E9441
:10294000211085E061E00E940A12882309F4E1C0A9
:102950009091B000953109F451C0963138F492301D
:10296000D9F19B30E9F0992369F0D3C09F3109F484
:10297000A1C0943621F0963109F0CBC06DC0109201
:10298000B000C5C08091CA009091CB000196909391
:10299000CB008093CA00833091050CF4B8C029C0E5
:1029A0002091B8003091B900813019F421503040A5
:1029B00002C0255030403093B9002093B800809178
:1029C000B8009091B900843691050CF0A0C07092C7
:1029D000B9006092B8009BC08091CA009091CB0072
:1029E00001969093CB008093CA00823091050CF43D
:1029F0008EC01092CB001092CA0089C02091BA00FC
:102A00003091BB004091BC005091BD00813029F451
:102A1000285730404040504004C0205B3440404084
:102A200050402093BA003093BB004093BC005093B9
:102A3000BD008091BA009091BB00A091BC00B09104
:102A4000BD00B7FF64C0E092BA00F092BB000093F3
:102A5000BC001093BD005BC02091BE003091BF0050
:102A60004091C0005091C100813029F42857304076
:102A70004040504004C0205B3440404050402093D0
:102A8000BE003093BF004093C0005093C1008091BE
:102A9000BE009091BF00A091C000B091C100B7FFEF
:102AA00036C0E092BE00F092BF000093C0001093C9
:102AB000C1002DC02091B2003091B3004091B4000C
:102AC0005091B500813029F42857304040405040A3
:102AD00004C0205B3440404050402093B20030930B
:102AE000B3004093B4005093B5008091B200909130
:102AF000B300A091B400B091B500B7FF08C0E09258
:102B0000B200F092B3000093B4001093B5000E949D
:102B1000211087E062E00E940A12813039F580912D
:102B2000B0008230A9F0833028F4882351F081303E
:102B3000E9F40BC0833091F08436C1F41092B000F8
:102B40000FC08091CA008F5F06C05092B00008C0CD
:102B50008091CA008B5E8093B00002C0A092B0004A
:102B60001092CB001092CA000E94211084E063E012
:102B70000E940A12813009F04AC09091B0009B3047
:102B8000E1F19C3048F49130E1F0913088F09230DE
:102B9000D9F09330E1F529C09631F9F0973118F466
:102BA0009531A9F518C09F3139F1943681F509C0E6
:102BB000B092B0001092CB001092CA000E94211077
:102BC00026C01092B000F6CF1092B000D093CB0088
:102BD000C093CA00F3CF82E010C082E08093B000BF
:102BE000D093CB00C093CA000EC01092B000D09218
:102BF000CB00C092CA00E2CF83E08093B000109275
:102C0000CB001092CA000E9421100E9430138091C4
:102C1000C400882309F447C01092C4008091B0001A
:102C20008B3059F08C3028F4813039F0833039F40E
:102C300004C08F3111F0843611F40E9421100E94DB
:102C400050120E9479128091C700882321F01092BF
:102C5000C7000E9430138091C300882311F04BBA43
:102C600001C01BBA8091C8009091C90088379105B6
:102C700051F48091B000843631F0B092B0000E94DF
:102C800030130E9421108091C300882339F4809171
:102C9000C8009091C9008837910511F081E001C00A
:102CA00080E00E943C0E8DEF9FEAA1E081509040B1
:102CB000A040E1F700C000C048CD0F93DF93CF9351
:102CC000CDB7DEB760970FB6F894DEBF0FBECDBFAD
:102CD000002309F459C029833A834B835C836D83B5
:102CE0007E838F839887E0E2E01B2D813E814F81B8
:102CF00058851E16BCF01D861E861F86188A8E2FCC
:102D0000992787FD9095909581959F4F04C0569582
:102D10004795379527958A95D2F729873A874B8724
:102D20005C872AC0CA01B901002E04C09695879518
:102D3000779567950A94D2F76D877E878F87988BF2
:102D4000DA01C90104C0880F991FAA1FBB1FEA95A9
:102D5000D2F729813A814B815C8104C05695479511
:102D6000379527950A95D2F7822B932BA42BB52B59
:102D700089879A87AB87BC8729853A854B855C858F
:102D80006D857E858F85988960960FB6F894DEBF35
:102D90000FBECDBFCF91DF910F9108950F93DF93B9
:102DA000CF93CDB7DEB760970FB6F894DEBF0FBEF6
:102DB000CDBF002309F459C029833A834B835C8338
:102DC0006D837E838F839887E0E2E01B29813A81BF
:102DD0004B815C811E16BCF019861A861B861C86E8
:102DE0008E2F992787FD9095909581959F4F04C0D0
:102DF000220F331F441F551F8A95D2F72D873E8718
:102E00004F87588B2AC0CA01B901002E04C0660F33
:102E1000771F881F991F0A94D2F769877A878B8753
:102E20009C87DA01C90104C0B695A7959795879547
:102E3000EA95D2F72D813E814F81588504C0220F3B
:102E4000331F441F551F0A95D2F7822B932BA42BB7
:102E5000B52B8D879E87AF87B88B29853A854B85A3
:102E60005C856D857E858F85988960960FB6F89410
:102E7000DEBF0FBECDBFCF91DF910F910895CBD0B4
:102E800080F09F3740F491110EF4DDC060E070E0F7
:102E900080E89FE3089526F01B16611D711D811DBA
:102EA0006FC089C004D06894B111CDC0089599D085
:102EB00088F09F5790F0B92F9927B751A0F0D1F023
:102EC000660F771F881F991F1AF0BA95C9F712C0AD
:102ED000B13081F0B7D0B1E00895B4C0672F782F3A
:102EE0008827B85F39F0B93FCCF386957795679519
:102EF000B395D9F73EF490958095709561957F4F85
:102F00008F4F9F4F0895E89409C097FB3EF490952A
:102F10008095709561957F4F8F4F9F4F9923A9F0B2
:102F2000F92F96E9BB279395F69587957795679541
:102F3000B795F111F8CFFAF4BB0F11F460FF1BC085
:102F40006F5F7F4F8F4F9F4F16C0882311F096E918
:102F500011C0772321F09EE8872F762F05C06623C6
:102F600071F096E8862F70E060E02AF09A95660F7F
:102F7000771F881FDAF7880F9695879597F9089538
:102F8000882371F4772321F09850872B762F07C080
:102F9000662311F499270DC09051862B70E060E0F4
:102FA0002AF09A95660F771F881FDAF7880F969593
:102FB000879597F908959F3F31F0915020F48795B8
:102FC00077956795B795880F911D9695879597F991
:102FD000089557FD9058440F551F59F05F3F71F009
:102FE0004795880F97FB991F61F09F3F79F0879570
:102FF0000895121613061406551FF2CF4695F1DFF9
:1030000008C0161617061806991FF1CF8695710588
:10301000610508940895E5DFA0F0BEE7B91788F4CC
:10302000BB279F3860F41616B11D672F782F8827AD
:10303000985FF7CF869577956795B11D93959639EB
:10304000C8F30895E894BB2766277727CB0197F943
:1030500008950BD07FC070D028F075D018F095235C
:1030600009F061C066C01124EECFB3DFA0F3959FD5
:10307000D1F3950F50E0551F629FF001729FBB275F
:10308000F00DB11D639FAA27F00DB11DAA1F649F0B
:103090006627B00DA11D661F829F2227B00DA11DBE
:1030A000621F739FB00DA11D621F839FA00D611D44
:1030B000221F749F3327A00D611D231F849F600D65
:1030C000211D822F762F6A2F11249F5750408AF09E
:1030D000E1F088234AF0EE0FFF1FBB1F661F771F2A
:1030E000881F91505040A9F79E3F510570F01BC0BA
:1030F000AACF5F3FECF3983EDCF386957795679512
:10310000B795F795E7959F5FC1F7FE2B880F911D47
:103110009695879597F908957EDF20F09F3708F4FC
:1031200092CF2ECF48CF97F99F6780E870E060E09C
:1031300008959FEF80EC089500240A941616170650
:1031400018060906089500240A9412161306140698
:1031500005060895092E0394000C11F4882352F0FB
:10316000BB0F40F4BF2B11F460FF04C06F5F7F4FB3
:103170008F4F9F4F0895991B79E004C0991F9617B0
:1031800008F0961B881F7A95C9F78095089597FBDC
:10319000092E07260AD077FD04D02ED006D00020B5
:1031A0001AF4709561957F4F0895F6F79095819583
:1031B0009F4F0895A1E21A2EAA1BBB1BFD010DC053
:1031C000AA1FBB1FEE1FFF1FA217B307E407F507D7
:1031D00020F0A21BB30BE40BF50B661F771F881FB3
:1031E000991F1A9469F760957095809590959B0149
:1031F000AC01BD01CF010895AA1BBB1B51E107C063
:10320000AA1FBB1FA617B70710F0A61BB70B881F76
:10321000991F5A95A9F780959095BC01CD01089505
:10322000DC01CB01FC01E199FECF06C0FFBBEEBB88
:10323000E09A31960DB20D9241505040B8F7089582
:10324000DC01A40FB51F4150504048F0CB01840F62
:10325000951F2E910E94311941505040D0F708958A
:10326000262FE199FECF9FBB8EBBE09A01970DB24E
:10327000021631F02DBB0FB6F894E29AE19A0FBE18
:063280000895F894FFCF51
:1032860030303A303000C2CACB2E00C2DBCACB2E59
:103296000030302E302043003A003A2000D2E5ECD0
:1032A600EFE5F0E0F2F3F0E000CFEEE4F1E2E5F274
:1032B600EAE000D7E0F1FB007D008900930066009C
:1032C6006B00D3F1F22E00A200D2E5EA2E00A9008F
:0232D600640092
:00000001FF
