:100000000C942A000C9447000C9447000C94470071
:100010000C9424030C9447000C9447000C94470064
:100020000C9498020C9447000C9447000C944700E1
:100030000C9447000C9447000C9447000C94470024
:100040000C9447000C9447000C9447000C94470014
:100050000C94470011241FBECFE5D4E0DEBFCDBF16
:1000600010E0A0E6B0E0E6E8F5E102C005900D92F0
:10007000A839B107D9F711E0A8E9B0E001C01D9295
:10008000A030B107E1F70E9439080C94C10A0C9422
:100090000000EF92FF920F931F9390E0DC01AA0FF4
:1000A000BB1FAA0FBB1FAE57BF4FED90FD900D9128
:1000B0001C91139770E0FB01EE0FFF1FEE0FFF1F67
:1000C000EE57FF4F20813181428153812D933D9323
:1000D0004D935C931397E082F18202831383FC01BA
:1000E00093E0EE0FFF1F9A95E1F7EF54FF4F83E087
:1000F000660F771F8A95E1F7DB01AF54BF4F675456
:100100007F4F80819C9191938D93A617B707C9F774
:100110001F910F91FF90EF9008951F93CF93DF935E
:10012000182F8093AA00C0E0D0E0CE011C1721F068
:1001300060E070E00E943E012196C630D105A9F72B
:10014000812F90E061E070E00E943E011092AB00D0
:100150000E94AE00DF91CF911F9108951F93CF931E
:10016000DF938091AA0090E0FC01EE0FFF1FE80FE3
:10017000F91FEE0FFF1FE851FF4F9081E92FEE0F9F
:10018000E90F8091AB00882319F0813089F407C012
:100190008FEF8093600081E080939C001EC01092DE
:1001A0009C00909360009530C0F01092600015C0E4
:1001B0009FEF9093600010929C00823019F0833082
:1001C00061F405C0E0936100909362000BC08E2F34
:1001D0008F5F809361008F5F03C08FEF809361001A
:1001E00080936200F0E04091AA00242F30E0EF01FC
:1001F000C752DF4FD901AA0FBB1FA20FB31FAA0F0F
:10020000BB1FA851BF4F11968C9111978F5E8883A9
:1002100012961C91812F90E06AE070E00E94690ABA
:10022000862FC6EFDFEF6C9FD0016D9FB00D7C9FD6
:10023000B00D1124A10F662309F480E1E752FF4FAE
:100240008183A283F901EE0FFF1FE20FF31FEE0F70
:10025000FF1FE851FF4F2081E9EDF0E080E04F5DA6
:1002600090E1281719F04083918392838F5F339632
:100270008530B9F7DF91CF911F9108958230D9F081
:10028000833028F4882351F0813019F50EC0843072
:10029000D9F08430B0F08530E1F419C0662319F04C
:1002A00084E68CBF08951CBE0895662311F0D89A89
:1002B0000895D8980895662311F0D99A0895D99889
:1002C000089560939E00089560939F000895609341
:1002D000A00008951F9310E0812F60E00E943E016E
:1002E0001F5F1630C9F71F91089581EB90E060E021
:1002F00070E048E250E00E94A00A88EE90E068E2D8
:1003000070E048E150E00E94A00A0895E9EDF0E0B5
:1003100081E1819390E0E83EF907D9F78FEF84BB44
:100320008CEF8ABB87EF87BB83E081BB81E08EBD0A
:1003300089B7846089BF88EE9DEF9DBD8CBD08950F
:10034000A82F8BB38C6F8BBB88B3876F88BB82B3AE
:10035000836082BB15BAA73071F1A83070F4A33066
:1003600011F1A43028F4A130D1F0A230D0F415C09E
:10037000A530E9F0A630E8F418C0AB3021F1AC307C
:1003800028F4A930E1F0AA30E0F417C0AD30F9F05C
:10039000AD30D8F0AE30F1F41CC0C7981BC09098B7
:1003A00019C0919817C0C49815C0C59813C0C698B5
:1003B00011C0C0980FC0C1980DC0C2980BC0DA9888
:1003C00009C0DB9807C0DC9805C0DD9803C0DE9843
:1003D00001C0DF9820919800309199002F5F3F4F26
:1003E00030939900209398008A2F63E00E945D0A61
:1003F00040919A0050919B004115510559F59091FB
:100400009C009923D1F490916000981741F080915D
:1004100061008A1721F0809162008A1729F483E134
:10042000293838074CF51AC087E221313807B4F073
:10043000109299001092980011C083E12838380773
:100440006CF087E221313807BCF0109299001092CD
:100450009800089590916000981771F4B0E0A75249
:10046000BF4FEC91F0E0EF71F070ED59FF4F8081DC
:1004700085BB8C9185FDAB9A0895DF92EF92FF9238
:100480000F931F93D82E7A018B01CB01BA0120E084
:1004900030E0A9010E94BC0887FF0BC0E3E08D2D6E
:1004A0008E9FF0011124E752FF4F81E18083818309
:1004B00038C0C801B70120E030E040E251E40E94BA
:1004C000D2090E942E090E94C008FB01CB0164E6FC
:1004D00070E00E94690A162F462F50E08CE99FEFCA
:1004E000489F9001499F300D589F300D11242E0FC9
:1004F0003F1FC9016AE070E00E94690A86EF9FEF22
:10050000689F802D1124820F112309F410E1E3E08C
:100510009D2D9E9FF0011124E752FF4F10836062D2
:10052000618382831F910F91FF90EF90DF90089578
:100530001F920F920FB60F9211242F933F934F9358
:100540005F936F937F938F939F93AF93BF93EF933B
:10055000FF9388EE9DEF9DBD8CBD80919D000E9414
:10056000A00180919D008F5F80939D00803110F0ED
:1005700010929D00FF91EF91BF91AF919F918F914C
:100580007F916F915F914F913F912F910F900FBE8F
:100590000F901F9018958EEB83BD8DE685BD89B7B2
:1005A000806489BF08959C01B901882777FD8095F3
:1005B000982F0E94F30821E93DEE4CEF5EE30E9484
:1005C000D2090E94C5087093A7006093A600089501
:1005D000CF93DF93C82FD0E0FE01E256FF4F80811A
:1005E000882339F1DE01AF55BF4F8C91FE01E158F0
:1005F000FF4F8823A9F480818F5F808350E090E0D3
:10060000841795070CF01082FE01EF55FF4FDE01B5
:10061000A158BF4F8C91680F711DDB018C910DC0EB
:1006200081508C93808180FD09C0C9010E94D30252
:1006300005C0FE01E158FF4F8FEF8083C256DF4FA8
:100640008881DF91CF9108951F920F920FB60F927C
:1006500011242F933F934F935F936F937F938F93C7
:100660009F93AF93BF93EF93FF938FE784BD8091E8
:10067000A6009091A700009739F08F9A0197909368
:10068000A7008093A60001C08F988091A40090914C
:10069000A500009711F584E690E09093A500809363
:1006A000A40082E06DE770E042E024EF31E00E94B8
:1006B000E8028823B9F481E069E770E044E02AEFBA
:1006C00030E00E94E802882369F467E770E042E0C6
:1006D00024EF31E00E94E80205C001979093A50045
:1006E0008093A400FF91EF91BF91AF919F918F9163
:1006F0007F916F915F914F913F912F910F900FBE1E
:100700000F901F90189521B330B381E090E002C0A4
:10071000880F991F3A95E2F78095822381BB08954F
:10072000282F98E080E048E1382F3227532F51706E
:1007300030FD84278695513009F48068915011F07E
:100740002695F2CF0895882319F092988A9A0895F1
:1007500092988A98089580B38470089581E00E94E9
:10076000A3038FEB93E00197F1F700C0000080E056
:100770000E94A30390EA9A95F1F790B3E7E4F3E0BF
:100780003197F1F700C0000081E092FD80E008950C
:100790001F93182F81E00E94A30382E08A95F1F74E
:1007A00000C0112319F080E00E94A30380EA8A951B
:1007B000F1F780E00E94A3031F91089581E00E9459
:1007C000A30382E08A95F1F700C080E00E94A303B2
:1007D00085E28A95F1F7000090B388E78A95F1F7F2
:1007E00081E092FF80E00895FF920F931F93CF93D3
:1007F000DF93F82EC0E0D0E001E010E098010C2E6D
:1008000002C0220F331F0A94E2F78F2D82230E9429
:10081000C8032196C830D10589F7DF91CF911F9188
:100820000F91FF900895FF920F931F93CF93DF9343
:10083000C0E0D0E0FF2401E010E00E94DE03882346
:1008400041F098010C2E02C0220F331F0A94E2F7E8
:10085000F22A2196C830D10581F78F2DDF91CF91F3
:100860001F910F91FF900895DF92EF92FF920F93E7
:100870001F93CF93DF93182FEB010E94AE038823C1
:1008800079F180EF0E94F403EE2400E448EFD42EC7
:10089000D00E0E94DE03F82E0E94DE03882319F09A
:1008A000FF2069F020C0FF2051F4011728F0888153
:1008B00080FF05C0101719F0E02EFF24F3948F2D50
:1008C0000E94C803888186958883FF2011F0806884
:1008D000888301500D15E9F6002339F02196D6CF13
:1008E000EE24EA9402C03EEFE32E8E2DDF91CF91ED
:1008F0001F910F91FF90EF90DF900895BF92CF92DC
:10090000DF92EF92FF920F931F93DF93CF93CDB7B8
:10091000DEB728970FB6F894DEBF0FBECDBFF894B0
:1009200000E010E08FEF7E010894E11CF11C79E0FB
:10093000C72ED12CCC0EDD1EB02EB7010E94340480
:100940008F3F29F18E3F19F1D701F80163E0EE0FD7
:10095000FF1F6A95E1F7EF54FF4F9D919193AC15FE
:10096000BD05D9F7B394882329F00F5F1F4F0530D9
:10097000110511F70B2D0BC0E02FF0E053E0EE0F47
:10098000FF1F5A95E1F7EF54FF4F10820F5F0530BC
:1009900098F3789428960FB6F894DEBF0FBECDBFBB
:1009A000CF91DF911F910F91FF90EF90DF90CF904B
:1009B000BF900895EF92FF920F931F93CF93DF9311
:1009C000182F092F0E94AE03882389F085E50E9425
:1009D000F403C801E92EE7017E01F82EE70118E0D3
:1009E00089910E94F4031150D9F781E001C080E0A1
:1009F000DF91CF911F910F91FF90EF900895DF92BB
:100A0000EF92FF920F931F93DF93CF93CDB7DEB793
:100A100028970FB6F894DEBF0FBECDBF8C010E94A1
:100A2000AE03882391F1C8010E94DA048EEB0E9484
:100A3000F4038E010F5F1F4FE9E0EE2EF12CEC0E58
:100A4000FD1EDD240E941304F80181938F018D2582
:100A50000E949003D82E0E151F05A1F70E941304C3
:100A6000D81699F49A8180E0698170E0682B792B1F
:100A7000882777FD8095982F0E94F30820E030E0CA
:100A800040E85DE30E94D20904C060E070E088ECB9
:100A900092EC28960FB6F894DEBF0FBECDBFCF9173
:100AA000DF911F910F91FF90EF90DF900895CF930A
:100AB000DF938091A80081508093A800882309F0DB
:100AC00057C0F89415BA809196008093A800809141
:100AD000A900C82FD0E0CE0123E0880F991F2A95E6
:100AE000E1F78F549F4FFC012081CC0FDD1FCC0F0D
:100AF000DD1F222349F00E94FF04CE57DF4F688399
:100B000079838A839B830AC0CE57DF4F80E090E0D1
:100B1000A8ECB2EC88839983AA83BB838091A90057
:100B20008F5F8093A900853010F01092A900E091AA
:100B3000A900F0E0A3E0EE0FFF1FAA95E1F7EF5444
:100B4000FF4F8081882399F00E94AE03882379F0BB
:100B50008091A90090E0F3E0880F991FFA95E1F7E2
:100B60008F549F4F0E94DA0484E40E94F403789427
:100B7000DF91CF9108950F931F931AE001E0009346
:100B8000A8000E9457058FEF90E7A2E081509040A7
:100B9000A040E1F700C00000115089F71F910F91AC
:100BA000089508951F93182F8091AF008A3011F097
:100BB0000E946A01112309F44CC08091B00088237F
:100BC00009F072C081E08093B0008091AF0088236B
:100BD000B1F484E18093AF00E9EDF0E080E181932E
:100BE00090E0E83EF907D9F70E947E040E94BB0519
:100BF00085E18093AF001092600085E027C01092DD
:100C0000AF008FEF9FEF0E948D008FEF8093600009
:100C1000809361008093620010929C0010929B0070
:100C200010929A00E9EDF0E080E18193A0E0E83EC7
:100C3000FA07D9F70E9475018FEF99E6A8E1815074
:100C40009040A040E1F700C0000089E18093960049
:100C50002BC08091AF008A3061F08531B1F08823DC
:100C600019F58AE08093AF0080E090E00E948D004B
:100C70001BC08091AB008F5F8093AB00843010F07D
:100C80001092AB000E94AE000FC081E090E0209176
:100C90009A0030919B002115310511F080E090E021
:100CA00090939B0080939A001F910895809160001B
:100CB0009091AF009A3021F0953109F08EC074C048
:100CC0008091AB008130B9F0813030F0823081F119
:100CD000833009F082C049C08091AA00882311F4B2
:100CE00085E001C081508093AA008091AA0090E025
:100CF0000E948D0008958091AA0090E0FC01EE0F03
:100D0000FF1FE80FF91FEE0FFF1FE851FF4F208173
:100D1000222311F0215001C024E0FC01EE0FFF1F3F
:100D2000E80FF91FEE0FFF1FE851FF4F208339C076
:100D30008091AA0090E0FC01EE0FFF1FE80FF91F61
:100D4000EE0FFF1FE851FF4F2181223011F02F5F7E
:100D500001C020E0FC01EE0FFF1FE80FF91FEE0FAE
:100D6000FF1FE851FF4F21831CC08091AA0090E033
:100D7000FC01EE0FFF1FE80FF91FEE0FFF1FE851F8
:100D8000FF4F22812A3511F02F5F01C02AE0FC01BC
:100D9000EE0FFF1FE80FF91FEE0FFF1FE851FF4F87
:100DA00022830E94AE000895882311F494E002C0CB
:100DB000982F915090936000109299001092980093
:100DC00020919A0030919B002115310531F06091FE
:100DD000600090E070E00E944900089580916000FA
:100DE0009091AF009A3021F0953109F090C075C014
:100DF0008091AB008130C1F0813030F0823089F1D8
:100E0000833009F084C04AC08091AA00853019F46B
:100E10001092AA0003C08F5F8093AA008091AA005D
:100E200090E00E948D0008958091AA0090E0FC015E
:100E3000EE0FFF1FE80FF91FEE0FFF1FE851FF4FE6
:100E40002081243011F02F5F01C020E0FC01EE0F63
:100E5000FF1FE80FF91FEE0FFF1FE851FF4F208320
:100E600039C08091AA0090E0FC01EE0FFF1FE80F4F
:100E7000F91FEE0FFF1FE851FF4F2181222311F0D0
:100E8000215001C022E0FC01EE0FFF1FE80FF91F07
:100E9000EE0FFF1FE851FF4F21831CC08091AA0075
:100EA00090E0FC01EE0FFF1FE80FF91FEE0FFF1F90
:100EB000E851FF4F22812A3011F0215001C02AE56C
:100EC000FC01EE0FFF1FE80FF91FEE0FFF1FE851A7
:100ED000FF4F22830E94AE000895843019F41092CF
:100EE000600004C0982F9F5F90936000109299005B
:100EF0001092980020919A0030919B0021153105A5
:100F000031F06091600090E070E00E944900089527
:100F1000AF92BF92CF92DF92EF92FF921F93CF9347
:100F2000DF93C8EED0E010E0E881EE2309F469C059
:100F30008981813021F0823009F063C02EC0F0E059
:100F4000EE0FFF1FEE0FFF1FEE57FF4FA080B18087
:100F5000C280D380EA80FF24B701882777FD80957F
:100F6000982F0E94F3089B01AC01C601B5010E94B5
:100F7000CE0987FF2EC0B70162507040882777FDE9
:100F80008095982F0E94F3089B01AC01C601B50122
:100F90000E94BC0887FF35C030C0F0E0EE0FFF1F95
:100FA000EE0FFF1FEE57FF4FA080B180C280D380AD
:100FB000EA80FF24B701882777FD8095982F0E944B
:100FC000F3089B01AC01C601B5010E94BC081816CC
:100FD0001CF0812F61E013C0B7016E5F7F4F88273F
:100FE00077FD8095982F0E94F3089B01AC01C60104
:100FF000B5010E94CE09181624F4812F60E00E94EA
:101000003E011F5F2696163009F08ECFDF91CF91FB
:101010001F91FF90EF90DF90CF90BF90AF90089519
:1010200081EB90E060E070E048E250E00E94900ABE
:1010300088EE90E068E270E048E150E00E94900A9B
:10104000E8EEF0E08AE09081953008F0108291811E
:10105000933008F0118292819B3508F0828392814F
:101060009A3008F48283369691E0EC30F90759F70C
:1010700008951F93CF93DF930E9410080E9486016A
:101080000E94CB020E9483030E94BB0589E18093EA
:10109000960082B3806782BB81E683BFBB9A8AB326
:1010A00083608ABB789488EC90E00E94D3028091A0
:1010B000AC0084990AC0853120F081E00E94D205FD
:1010C0000EC08F5F8093AC000AC08150843118F449
:1010D00080E00E94D2051092AC001092B000809186
:1010E000AD00859909C08B3018F00E9456060BC0E0
:1010F0008F5F8093AD0007C081508A3010F40E944A
:1011000056061092AD008091AE00869909C08B30D2
:1011100018F00E94EE060BC08F5F8093AE0007C0F0
:1011200081508A3010F40E94EE061092AE00809139
:10113000AF00882311F0853179F40E945705C2E889
:10114000D0E010E04991599169917991812F0E94E5
:101150003D021F5F1530B1F78091AF00882311F475
:101160000E9488078FE798E3A1E081509040A0405B
:10117000E1F700C000009BCF84D008F481E008951F
:1011800004D06894B11104C10895D0D088F09F575D
:1011900090F0B92F9927B751A0F0D1F0660F771FC3
:1011A000881F991F1AF0BA95C9F712C0B13081F0A3
:1011B000EED0B1E00895EBC0672F782F8827B85F95
:1011C00039F0B93FCCF3869577956795B395D9F704
:1011D0003EF490958095709561957F4F8F4F9F4F0E
:1011E0000895E89409C097FB3EF49095809570951A
:1011F00061957F4F8F4F9F4F9923A9F0F92F96E963
:10120000BB279395F695879577956795B795F111D7
:10121000F8CFFAF4BB0F11F460FF1BC06F5F7F4F74
:101220008F4F9F4F16C0882311F096E911C0772386
:1012300021F09EE8872F762F05C0662371F096E88F
:10124000862F70E060E02AF09A95660F771F881F5E
:10125000DAF7880F9695879597F9089581D080F0F1
:101260009F3740F491110EF093C060E070E080E889
:101270009FEB089526F41B16611D711D811D25C06D
:101280003FC0990F0008550FAA0BE0E8FEEF1616B5
:101290001706E807F907C0F012161306E407F5076A
:1012A00098F0621B730B840B950B39F40A2661F0DE
:1012B000232B242B252B21F408950A2609F4A14081
:1012C000A6958FEF811D811D0895882371F47723E2
:1012D00021F09850872B762F07C0662311F49927A9
:1012E0000DC09051862B70E060E02AF09A95660F51
:1012F000771F881FDAF7880F9695879597F90895D5
:101300009F3F31F0915020F4879577956795B79579
:10131000880F911D9695879597F9089557FD9058D8
:10132000440F551F59F05F3F71F04795880F97FBA9
:10133000991F61F09F3F79F0879508951216130663
:101340001406551FF2CF4695F1DF08C01616170692
:101350001806991FF1CF86957105610508940895C7
:10136000E5DFA0F0BEE7B91788F4BB279F3860F42B
:101370001616B11D672F782F8827985FF7CF8695AF
:1013800077956795B11D93959639C8F30895E894BC
:10139000BB2766277727CB0197F9089572DF08F4FA
:1013A0008FEF08950BD078C069D028F06ED018F078
:1013B000952309F05AC05FC01124EACFAFDFA0F334
:1013C000959FD1F3950F50E0551F629FF001729FDA
:1013D000BB27F00DB11D639FAA27F00DB11DAA1FF9
:1013E000649F6627B00DA11D661F829F2227B00D46
:1013F000A11D621F739FB00DA11D621F839FA00DD1
:10140000611D221F749F3327A00D611D231F849F20
:10141000600D211D822F762F6A2F11249F57504077
:101420008AF0E1F088234AF0EE0FFF1FBB1F661F12
:10143000771F881F91505040A9F79E3F510570F0CB
:1014400014C0A6CF5F3FECF3983EDCF3869577950A
:101450006795B795F795E7959F5FC1F7FE2B880FC6
:10146000911D9695879597F9089597F99F6780E85C
:1014700070E060E008959FEF80EC089500240A94E6
:101480001616170618060906089500240A9412165F
:101490001306140605060895092E0394000C11F492
:1014A000882352F0BB0F40F4BF2B11F460FF04C03F
:1014B0006F5F7F4F8F4F9F4F0895991B79E004C056
:1014C000991F961708F0961B881F7A95C9F7809583
:1014D000089597FB092E07260AD077FD04D00CD07B
:1014E00006D000201AF4709561957F4F0895F6F7A5
:1014F000909581959F4F0895AA1BBB1B51E107C092
:10150000AA1FBB1FA617B70710F0A61BB70B881F93
:10151000991F5A95A9F780959095BC01CD01089522
:10152000DC01CB01FC01E199FECF06C0FFBBEEBBA5
:10153000E09A31960DB20D9241505040B8F708959F
:10154000DC01A40FB51F4150504048F0CB01840F7F
:10155000951F2E910E94B10A41505040D0F7089536
:10156000262FE199FECF9FBB8EBBE09A01970DB26B
:10157000021631F02DBB0FB6F894E29AE19A0FBE35
:061580000895F894FFCF6E
:10158600FFFFFFB7A0C7E6F07677A4F7F6F5731767
:10159600E3575500409423023C0201023C0202FF3D
:1015A600FFFF0000C8C20000C8C20000C8C2000099
:0815B600C8C20000C8C2010018
:00000001FF
