:100000000C942A000C9447000C9407070C944700AA
:100010000C944D030C9447000C9447000C9447003B
:100020000C9480020C9424070C9447000C94470015
:100030000C9447000C9447000C9447000C94470024
:100040000C9447000C9447000C9447000C94470014
:100050000C94470011241FBECFE5D4E0DEBFCDBF16
:1000600010E0A0E6B0E0EEE9F9E102C005900D92E3
:10007000A639B107D9F711E0A6E9B0E001C01D9299
:10008000A531B107E1F70E943C0A0C94CD0C0C9409
:100090000000CF93DF9390E0EC01CC0FDD1FCE5733
:1000A000DF4F2881398170E0DB01AA0FBB1FAE57FB
:1000B000BF4F4D915C911197598348832D933C9389
:1000C000FC0193E0EE0FFF1F9A95E1F7E654FF4F16
:1000D00083E0660F771F8A95E1F7DB01A654BF4FD7
:1000E0006E537F4F80819C9191938D93A617B70794
:1000F000C9F7DF91CF9108951F93CF93DF93182F06
:100100008093B400C0E0D0E0CE011C1721F060E085
:1001100070E00E942D012196C630D105A9F7112368
:1001200029F480E090E064E670E004C0812F90E064
:1001300061E070E00E942D011092B5000E94A400C1
:10014000DF91CF911F9108951F93CF93DF93E0919B
:10015000B400F0E0EE0FFF1FEE0FFF1FE350FF4F64
:100160009081E92FEE0FE90F8091B500882319F0F7
:10017000813089F407C08FEF8093600081E0809325
:100180009E001EC010929E00909360009530C0F0BB
:100190001092600015C09FEF9093600010929E0037
:1001A000823019F0833061F405C0E09361009093D0
:1001B00062000BC08E2F8F5F809361008F5F03C042
:1001C0008FEF8093610080936200F0E04091B40073
:1001D000242F30E0EF01CE51DF4FD901AA0FBB1F12
:1001E000AA0FBB1FA350BF4F11968C9111978F5E22
:1001F000888312961C91812F90E06AE070E00E9443
:10020000750C862FC6EFDFEF6C9FD0016D9FB00D90
:100210007C9FB00D1124A10F662309F480E1EE51FB
:10022000FF4F8183A283F901EE0FFF1FEE0FFF1F27
:10023000E350FF4F2081E2EEF0E080E04F5D90E17F
:10024000281719F04083918392838F5F339685300E
:10025000B9F7DF91CF911F9108958230B1F08330CB
:1002600028F4882351F08130F1F409C08430B1F0D2
:10027000843088F08530B9F414C06CBF08956623CB
:1002800011F0D89A0895D8980895662311F0D99A54
:100290000895D99808956093A00008956093A100EF
:1002A00008956093A20008951F9310E0812F60E0ED
:1002B0000E942D011F5F1630C9F71F9108958AEB28
:1002C00090E060E070E048E250E00E94AC0C8DEFFE
:1002D00090E068E270E048E150E00E94AC0C0895C4
:1002E000E2EEF0E081E1819390E0E13FF907D9F798
:1002F0008FEF84BB8CEF8ABB87EF87BB83E081BB2A
:1003000081E08EBD89B7846089BF88EE9DEF9DBD79
:100310008CBD0895E82F8BB38C6F8BBB88B3876F30
:1003200088BB82B3836082BB15BAE73071F1E830D5
:1003300070F4E33011F1E43028F4E130D1F0E23030
:10034000D0F415C0E530E9F0E630E8F418C0EB3041
:1003500021F1EC3028F4E930E1F0EA30E0F417C0A4
:10036000ED30F9F0ED30D8F0EE30F1F41CC0C79864
:100370001BC0909819C0919817C0C49815C0C59813
:1003800013C0C69811C0C0980FC0C1980DC0C298C4
:100390000BC0DA9809C0DB9807C0DC9805C0DD986F
:1003A00003C0DE9801C0DF9880919600882309F48D
:1003B0004EC020919A0030919B002F5F3F4F3093A9
:1003C0009B0020939A008E2F63E00E94690C40915D
:1003D0009C0050919D004115510531F090916000B5
:1003E000981709F04DC033C090919E00992371F089
:1003F00083E1283838075CF187E2213138070CF4B3
:100400003FC010929B0010929A0008959091600056
:10041000981741F0809161008E1721F08091620061
:100420008E1769F483E1293838078CF040B350E027
:1004300040955095407650704115510509F187E27D
:100440002131380724F010929B0010929A00F0E0BE
:10045000EE51FF4FE081F0E0E5FD04C08091970090
:10046000882341F0EF71F070ED59FF4F8081886073
:1004700085BB0895EF71F070ED59FF4F808185BB0A
:1004800008950F931F93082FFB0177FF0BC0E3E044
:100490008E9FF0011124EE51FF4F81E18083818313
:1004A00082832BC0CB0164E670E00E94750C162F8E
:1004B000A62FB0E04CE95FEFA49F9001A59F300DFF
:1004C000B49F300D11242E0F3F1FC9016AE070E068
:1004D0000E94750C46EF5FEF649F402D1124420F80
:1004E000112309F410E1E3E00E9FF0011124EE5115
:1004F000FF4F10836062618342831F910F910895C3
:100500001F920F920FB60F9211242F933F934F9388
:100510005F936F937F938F939F93AF93BF93EF936B
:10052000FF9388EE9DEF9DBD8CBD80919F000E9442
:100530008A0180919F008F5F80939F00803110F02F
:1005400010929F00FF91EF91BF91AF919F918F917A
:100550007F916F915F914F913F912F910F900FBEBF
:100560000F901F9018958EEB83BD8DE685BD89B7E2
:10057000806489BF089564E670E00E94750C7093F2
:10058000A9006093A80008951F93CF93DF93E82FED
:10059000F0E0DF01A056BF4F1C91112369F1EF017C
:1005A000CD55DF4F8881DF01A158BF4F8823A9F4C3
:1005B0008C918F5F8C9350E090E0841795070CF03E
:1005C0001C92DF01AD55BF4FE158FF4F8081680F8E
:1005D000711DFB0180818C9313C0815088838C91A5
:1005E00080FD0EC0C90164E670E00E94750C709336
:1005F000A9006093A80004C0E158FF4F8FEF8083EB
:10060000812FDF91CF911F9108958091A800909143
:10061000A900009739F08F9A01979093A9008093D1
:10062000A80001C08F988091980090919900009740
:1006300071F58091A6009091A700009711F582E0D6
:1006400090E09093A7008093A60082E06DE770E0B1
:1006500042E024EF31E00E94C4028823E9F481E003
:1006600069E770E044E02AEF30E00E94C40288238A
:1006700099F467E770E042E024EF31E00E94C402A1
:10068000089501979093A7008093A600089501977D
:10069000909399008093980008951F920F920FB63F
:1006A0000F9211248F938FE784BD8F910F900FBE0F
:1006B0000F901F901895282F98E080E048E1382F80
:1006C0003227532F517030FD84278695513009F41D
:1006D0008068915011F02695F2CF089521B330B380
:1006E00081E090E002C0880F991F3A95E2F780956B
:1006F000822381BB0895882319F092988A9A0895DD
:1007000092988A98089581E00E947B038FEB93E092
:100710000197F1F700C0000080E00E947B0390EA9F
:100720009A95F1F790B3E7E4F3E03197F1F700C061
:10073000000081E092FD80E008951F93182F81E072
:100740000E947B0382E08A95F1F700C0112319F023
:1007500080E00E947B0380EA8A95F1F780E00E94A6
:100760007B031F91089581E00E947B0382E08A95BC
:10077000F1F700C080E00E947B0382E08A95F1F7E8
:1007800000C090B38AE68A95F1F700C081E092FF3D
:1007900080E00895FF920F931F93CF93DF93F82E7D
:1007A000C0E0D0E001E010E098010C2E02C0220F62
:1007B000331F0A94E2F78F2D82230E949D03219616
:1007C000C830D10589F7DF91CF911F910F91FF902C
:1007D0000895FF920F931F93CF93DF93C0E0D0E073
:1007E000FF2401E010E00E94B303882341F0980148
:1007F0000C2E02C0220F331F0A94E2F7F22A219630
:10080000C830D10581F78F2DDF91CF911F910F91C6
:10081000FF900895DF92EF92FF920F931F93CF9373
:10082000DF93182FEB010E948303882379F180EF77
:100830000E94CA03EE2400E488EFD82ED00E0E9456
:10084000B303F82E0E94B303882319F0FF2069F048
:1008500020C0FF2051F4011728F0888180FF05C0D7
:10086000101719F0E02EFF24F3948F2D0E949D03A2
:10087000888186958883FF2011F0806888830150E5
:100880000D15E9F6002339F02196D6CFEE24EA942F
:1008900002C0BEEFEB2E8E2DDF91CF911F910F91F5
:1008A000FF90EF90DF900895BF92CF92DF92EF928A
:1008B000FF920F931F93DF93CF93CDB7DEB72897A7
:1008C0000FB6F894DEBF0FBECDBFF89400E010E085
:1008D0008FEF7E010894E11CF11C39E0C32ED12C6E
:1008E000CC0EDD1EB02EB7010E940A048F3F29F105
:1008F0008E3F19F1D701F80123E0EE0FFF1F2A9573
:10090000E1F7E654FF4F9D919193AC15BD05D9F7E2
:10091000B394882329F00F5F1F4F0530110511F79D
:100920000B2D0BC0E02FF0E093E0EE0FFF1F9A9528
:10093000E1F7E654FF4F10820F5F053098F378948B
:1009400028960FB6F894DEBF0FBECDBFCF91DF91D2
:100950001F910F91FF90EF90DF90CF90BF9008957F
:10096000EF92FF921F93DF93CF930F92CDB7DEB735
:10097000182F85E599830E94CA039981612F792FE9
:100980007B0118E0F70181917F010E94CA03115099
:10099000C9F781E00F90CF91DF911F91FF90EF9009
:1009A0000895CF92DF92EF92FF920F931F93DF9300
:1009B000CF93CDB7DEB729970FB6F894DEBF0FBE41
:1009C000CDBF8C010E948303882309F440C0C80175
:1009D0000E94B0048EEB0E94CA038E010F5F1F4F6E
:1009E0004AE0C42ED12CCC0EDD1E78010E94E90312
:1009F000F70181937F01EC15FD05C1F780E0F80157
:100A000091918F0189270E945B030C151D05B9F791
:100A10008823E9F49A8180E0698170E0682B792B62
:100A2000882777FD8095982F0E94120B20E030E0F8
:100A300040E85DE30E94DE0B20E030E040E251E45C
:100A40000E94DE0B0E94C80A0E94DF0A02C068E111
:100A50007CEFCB0129960FB6F894DEBF0FBECDBF59
:100A6000CF91DF911F910F91FF90EF90DF90CF908A
:100A700008958091AF0081508093AF00882309F0E2
:100A800076C080919600882311F0F89415BA809171
:100A90008C008093AF008091B100E091B00088237A
:100AA00041F1F0E0A3E0EE0FFF1FAA95E1F7E65455
:100AB000FF4F8081882399F00E948303882379F077
:100AC0008091B00090E0E3E0880F991FEA95E1F78C
:100AD00086549F4F0E94B00484E40E94CA03809110
:100AE000B0008F5F8093B0008530A8F11092B00005
:100AF00032C0F0E0CF0173E0880F991F7A95E1F7DB
:100B000086549F4FDC012C912223E9F00E94D104EE
:100B1000E091B000BCEF88319B0759F4F0E0DF01B1
:100B2000A655BF4F2C91322F3F5F3C93233098F056
:100B300005C0F0E0DF01A655BF4F1C92EE0FFF1F6E
:100B4000EE57FF4F06C0EE0FFF1FEE57FF4F88E135
:100B50009CEF9183808380919600882309F078949C
:100B600081E09091B100911180E08093B1000895EF
:100B70000F931F9314E101E00093AF000E94390529
:100B80008FEF90E7A2E081509040A040E1F700C0D5
:100B90000000115089F71F910F910895CF93DF93B3
:100BA000CDE8D0E080E0999189270E945B0390E036
:100BB000C439D907C1F7809394008B9888E085BF2A
:100BC0008BB780688BBFDF91CF91089588EE93E05B
:100BD00002C0019711F08399FCCF85E38A95F1F764
:100BE000000081E0839B80E020E030E006C02F5FC2
:100BF0003F4F93E0283E390711F0839BF8CF0895CB
:100C00000F931F9388EE93E002C0019711F0839B2E
:100C1000FCCF08E010E016950E94E60581111068EF
:100C20000150C9F7812F1F910F91089528EE33E0ED
:100C300003C02150304011F08399FBCF8B9888235B
:100C400009F48B9A80EA8A95F1F78B9888EE93E005
:100C500002C0019711F0839BFCCF08950F931F935F
:100C6000082F28EE33E003C02150304011F0839B61
:100C7000FBCF18E0802F81700E9416060695115058
:100C8000C9F71F910F910895CF92DF92FF920F93B2
:100C90001F93DF93CF930F92CDB7DEB78CB791E060
:100CA000882309F490E0D8999260D9999460809152
:100CB000A000811198608091A100811190618091C4
:100CC000A20081119062B2E8CB2EB0E0DB2E01EFE2
:100CD00010E080E0F6012081F18042E050E0C40E97
:100CE000D51EF8012083822799830E945B03F801B7
:100CF000F1828F250E945B030E5F1F4F9981FCE8F4
:100D0000CF16F0E0DF0631F79093FB0089270E94B1
:100D10005B038093FC000F90CF91DF911F910F91A7
:100D2000FF90DF90CF900895DF92EF92FF920F93A4
:100D30001F93CF93DF9388EE93E002C0019711F0E9
:100D4000839BFCCF80E58A95F1F78B9A87EC90E046
:100D50000197F1F700C000008B9888EE93E002C085
:100D6000019711F0839BFCCF0E9400068C3E31F06E
:100D7000803F21F0853509F042C025C08C3E21F42A
:100D8000809197008823D9F510E0DD24D394E12FDA
:100D9000F0E0E357FF4FF08008E0EE24E394EF200B
:100DA0008E2D0E9416068E2D8D250E9416060E94FD
:100DB000E6058E1521F5015011F0F694EECF1F5F78
:100DC000183029F71CC0CDE8D0E00E9400069991A8
:100DD0008917A9F490E0C539D907B9F70E94000630
:100DE000803A69F4C1EFD0E089910E942E0680E03C
:100DF000CD3FD807C9F71092B3001092B200DF912F
:100E0000CF911F910F91FF90EF90DF9008951F9267
:100E10000F920FB60F9211248F9305B602FE04C0F5
:100E20001092950088E009C08DEC82BF81E080932C
:100E3000950089B7816089BF8CE085BF8F910F9045
:100E40000FBE0F901F9018951F920F920FB60F9222
:100E500011242F933F934F935F936F937F938F93BF
:100E60009F93AF93BF93EF93FF9380919600882356
:100E7000D9F48091B2009091B30025E780339207B6
:100E800050F420919700222331F401969093B300FF
:100E90008093B20009C080919500882329F01092B8
:100EA000950015BA0E949406FF91EF91BF91AF9102
:100EB0009F918F917F916F915F914F913F912F9172
:100EC0000F900FBE0F901F9018951F93182F8091B1
:100ED00096008A3011F00E945401112309F44BC08E
:100EE0008091B900882309F071C081E08093B90036
:100EF000809196008823A9F484E180939600E2EE25
:100F0000F0E080E1819390E0E13FF907D9F70E949A
:100F100054040E94B80585E1809396001092600009
:100F200026C0109296008FEF9FEF0E947C008FEFFB
:100F300080936000809361008093620010929E0015
:100F400010929D0010929C00E2EEF0E080E181930F
:100F5000A0E0E13FFA07D9F70E945F018FEF99E621
:100F6000A8E181509040A040E1F700C0000081E07E
:100F700080938C002BC0809196008A3061F085317F
:100F8000B1F0882319F58AE08093960080E090E024
:100F90000E947C001BC08091B5008F5F8093B500DC
:100FA000843010F01092B5000E94A4000FC081E0C0
:100FB00090E020919C0030919D002115310511F0A9
:100FC00080E090E090939D0080939C001F91089595
:100FD00080916000909196009A30E9F0953109F483
:100FE00083C0992309F099C08091B700882361F0EC
:100FF0008091B800882341F081E090919700911191
:1010000080E08093970008958CED95E0909399008F
:101010008093980008958091B5008130B9F08130B7
:1010200030F0823059F1833009F077C041C08091AF
:10103000B400882311F485E001C081508093B4008E
:101040008091B40090E00E947C000895E091B4008B
:10105000F0E0DF01AA0FBB1FAA0FBB1FA350BF4FB9
:101060008C91882311F0815001C084E0EE0FFF1FA6
:10107000EE0FFF1FE350FF4F808333C0E091B400B9
:10108000F0E0DF01AA0FBB1FAA0FBB1FA350BF4F89
:1010900011968C911197823011F08F5F01C080E022
:1010A000EE0FFF1FEE0FFF1FE350FF4F818319C0AC
:1010B000E091B400F0E0DF01AA0FBB1FAA0FBB1F35
:1010C000A350BF4F12968C9112978A3511F08F5F03
:1010D00001C08AE0EE0FFF1FEE0FFF1FE350FF4F2E
:1010E00082830E94A4000895882311F494E002C032
:1010F000982F91509093600010929B0010929A004C
:1011000020919C0030919D002115310531F06091B6
:10111000600090E070E00E944900089580916000B6
:10112000909196009A30E9F0953109F484C09923A2
:1011300009F09BC08091B700882361F08091B800CE
:10114000882341F081E090919700911180E0809395
:10115000970008958CED95E0909399008093980006
:1011600008958091B5008130C1F0813030F0823037
:1011700061F1833009F079C042C08091B4008530BC
:1011800019F41092B40003C08F5F8093B400809173
:10119000B40090E00E947C000895E091B400F0E07B
:1011A000DF01AA0FBB1FAA0FBB1FA350BF4F8C911B
:1011B000843011F08F5F01C080E0EE0FFF1FEE0F53
:1011C000FF1FE350FF4F808333C0E091B400F0E095
:1011D000DF01AA0FBB1FAA0FBB1FA350BF4F119661
:1011E0008C911197882311F0815001C082E0EE0F9D
:1011F000FF1FEE0FFF1FE350FF4F818319C0E091E7
:10120000B400F0E0DF01AA0FBB1FAA0FBB1FA35061
:10121000BF4F12968C9112978A3011F0815001C005
:101220008AE5EE0FFF1FEE0FFF1FE350FF4F828393
:101230000E94A4000895843019F41092600004C044
:10124000982F9F5F9093600010929B0010929A00DD
:1012500020919C0030919D002115310531F0609165
:10126000600090E070E00E9449000895E091FD0068
:10127000F0E0EE0FFF1FEE57FF4F8081918120912C
:10128000FE00213019F02230C9F516C04091FF0050
:1012900050E026EF3FEF429FB001439F700D529FF9
:1012A000700D1124680F791F77FD19C06333710524
:1012B000E4F4660F80E01BC04091FF0050E026EF91
:1012C0003FEF429FB001439F700D529F700D11245C
:1012D000680F791F709561957F4F77FF03C080E09D
:1012E00060E005C0633371052CF080E064E60E9485
:1012F0002D010895660F80E00E942D0108958F92C0
:101300009F92BF92CF92DF92EF92FF920F931F9323
:10131000CF93DF930E943609C1E0D1E011E07AE07B
:10132000872E912CE881F0E0EE0FFF1FEE57FF4F64
:1013300080819181B4010E94750C882777FD80958A
:10134000982F0E94120B062FD72EC82EB92E8981F6
:10135000813021F0823009F055C027C0EA80FF2497
:10136000B701882777FD8095982F0E94120B9B016B
:10137000AC01602F7D2D8C2D9B2D0E94DA0B87FFF9
:1013800027C0B70162507040882777FD8095982F5D
:101390000E94120B9B01AC01602F7D2D8C2D9B2D8B
:1013A0000E94DB0A87FF2EC029C0EA80FF24B70114
:1013B000882777FD8095982F0E94120B9B01AC0126
:1013C000602F7D2D8C2D9B2D0E94DB0A18161CF0A2
:1013D000812F61E015C0B7016E5F7F4F882777FDD1
:1013E0008095982F0E94120B9B01AC01602F7D2DE0
:1013F0008C2D9B2D0E94DA0B181624F4812F60E0AF
:101400000E942D011F5F2496163009F08BCFDF91CB
:10141000CF911F910F91FF90EF90DF90CF90BF90F1
:101420009F908F9008958AEB90E060E070E048E232
:1014300050E00E949C0C8DEF90E068E270E048E183
:1014400050E00E949C0CEDEFF0E08AE09081953036
:1014500008F010829181933008F0118292819B35BF
:1014600008F0828392819A3008F48283349691E066
:10147000E531F90759F708951F93CF93DF930E9441
:10148000130A0E9470010E94B3020E946E030E9420
:10149000B80581E080938C000E94CE0582B38067FE
:1014A00082BB8BE683BF89B7816089BFBB9A8AB351
:1014B00083608ABB789482E090E09093A900809347
:1014C000A8008091B60084990AC0853120F081E09F
:1014D0000E9465070EC08F5F8093B6000AC08150DE
:1014E000843118F480E00E9465071092B6001092D3
:1014F000B9008091B700859909C0863018F00E9424
:10150000E8070BC08F5F8093B70007C0815085301C
:1015100010F40E94E8071092B7008091B8008699F5
:1015200009C0863018F00E948E080BC08F5F809330
:10153000B80007C08150853010F40E948E081092C8
:10154000B80080919600882311F0853179F40E94CB
:101550003905C2E8D0E010E069917991812F0E94AD
:1015600041021F5F1530C1F70E944406809196002A
:10157000882311F40E947F090E9405038FE798E3F6
:10158000A1E081509040A040E1F700C0000099CF59
:10159000F3D080F09F3740F491110EF405C160E064
:1015A00070E080E89FE3089526F01B16611D711D11
:1015B000811D97C0B1C071D008F481E0089504D0B6
:1015C0006894B111F1C00895BDD088F09F5790F094
:1015D000B92F9927B751A0F0D1F0660F771F881F58
:1015E000991F1AF0BA95C9F712C0B13081F0DBD05B
:1015F000B1E00895D8C0672F782F8827B85F39F0F9
:10160000B93FCCF3869577956795B395D9F73EF4B6
:1016100090958095709561957F4F8F4F9F4F08955E
:10162000E89409C097FB3EF490958095709561957C
:101630007F4F8F4F9F4F9923A9F0F92F96E9BB2732
:101640009395F695879577956795B795F111F8CFAE
:10165000FAF4BB0F11F460FF1BC06F5F7F4F8F4F19
:101660009F4F16C0882311F096E911C0772321F00F
:101670009EE8872F762F05C0662371F096E8862FA7
:1016800070E060E02AF09A95660F771F881FDAF7FE
:10169000880F9695879597F90895990F0008550F2B
:1016A000AA0BE0E8FEEF16161706E807F907C0F0E8
:1016B00012161306E407F50798F0621B730B840BF0
:1016C000950B39F40A2661F0232B242B252B21F4CA
:1016D00008950A2609F4A140A6958FEF811D811D6A
:1016E0000895882371F4772321F09850872B762F63
:1016F00007C0662311F499270DC09051862B70E026
:1017000060E02AF09A95660F771F881FDAF7880F36
:101710009695879597F908959F3F31F0915020F461
:10172000879577956795B795880F911D96958795BD
:1017300097F9089557FD9058440F551F59F05F3F92
:1017400071F04795880F97FB991F61F09F3F79F0E3
:1017500087950895121613061406551FF2CF469565
:10176000F1DF08C0161617061806991FF1CF8695E7
:101770007105610508940895E5DFA0F0BEE7B9178B
:1017800088F4BB279F3860F41616B11D672F782F99
:101790008827985FF7CF869577956795B11D9395C4
:1017A0009639C8F30895E894BB2766277727CB01BD
:1017B00097F9089572DF08F48FEF08950BD078C081
:1017C00069D028F06ED018F0952309F05AC05FC098
:1017D0001124EACFAFDFA0F3959FD1F3950F50E02E
:1017E000551F629FF001729FBB27F00DB11D639FD3
:1017F000AA27F00DB11DAA1F649F6627B00DA11D79
:10180000661F829F2227B00DA11D621F739FB00D1E
:10181000A11D621F839FA00D611D221F749F33278E
:10182000A00D611D231F849F600D211D822F762F27
:101830006A2F11249F5750408AF0E1F088234AF024
:10184000EE0FFF1FBB1F661F771F881F9150504070
:10185000A9F79E3F510570F014C0A6CF5F3FECF38F
:10186000983EDCF3869577956795B795F795E7955C
:101870009F5FC1F7FE2B880F911D9695879597F96D
:10188000089597F99F6780E870E060E008959FEF02
:1018900080EC089500240A94161617061806090607
:1018A000089500240A9412161306140605060895D6
:1018B000092E0394000C11F4882352F0BB0F40F45E
:1018C000BF2B11F460FF04C06F5F7F4F8F4F9F4F9E
:1018D0000895991B79E004C0991F961708F0961B8C
:1018E000881F7A95C9F78095089597FB092E0726DA
:1018F0000AD077FD04D00CD006D000201AF47095E1
:1019000061957F4F0895F6F7909581959F4F0895C3
:10191000AA1BBB1B51E107C0AA1FBB1FA617B70715
:1019200010F0A61BB70B881F991F5A95A9F7809531
:101930009095BC01CD010895DC01CB01FC01E1993A
:10194000FECF06C0FFBBEEBBE09A31960DB20D9202
:1019500041505040B8F70895DC01A40FB51F415025
:10196000504048F0CB01840F951F2E910E94BD0C72
:1019700041505040D0F70895262FE199FECF9FBBEC
:101980008EBBE09A01970DB2021631F02DBB0FB657
:0E199000F894E29AE19A0FBE0895F894FFCF02
:10199E00FFFFFFB7A0C7E6F07677A4F7F6F573174B
:1019AE00E3575500409423023C0201023C0202FF21
:1019BE00FFFF18FC18FC18FC18FC18FC01E00000D6
:0619CE0000000001000111
:00000001FF
