:100000000C942A000C9447000C94F4060C944700BE
:100010000C9424030C9447000C9447000C94470064
:100020000C9498020C9411070C9447000C94470010
:100030000C9447000C9447000C9447000C94470024
:100040000C9447000C9447000C9447000C94470014
:100050000C94470011241FBECFE5D4E0DEBFCDBF16
:1000600010E0A0E6B0E0E0EDF9E102C005900D92ED
:10007000A03AB107D9F711E0A0EAB0E001C01D92A3
:10008000AB30B107E1F70E94E1090C94E60C0C9447
:100090000000EF92FF920F931F9390E0DC01AA0FF4
:1000A000BB1FAA0FBB1FAE57BF4FED90FD900D9128
:1000B0001C91139770E0FB01EE0FFF1FEE0FFF1F67
:1000C000EE57FF4F20813181428153812D933D9323
:1000D0004D935C931397E082F18202831383FC01BA
:1000E00093E0EE0FFF1F9A95E1F7E454FF4F83E092
:1000F000660F771F8A95E1F7DB01A454BF4F6C535D
:100100007F4F80819C9191938D93A617B707C9F774
:100110001F910F91FF90EF9008951F93CF93DF935E
:10012000182F8093B600C0E0D0E0CE011C1721F05C
:1001300060E070E00E943E012196C630D105A9F72B
:10014000812F90E061E070E00E943E011092B700C4
:100150000E94AE00DF91CF911F9108951F93CF931E
:10016000DF938091B60090E0FC01EE0FFF1FE80FD7
:10017000F91FEE0FFF1FED50FF4F9081E92FEE0F9B
:10018000E90F8091B700882319F0813089F407C006
:100190008FEF8093600081E08093A5001EC01092D5
:1001A000A500909360009530C0F01092600015C0DB
:1001B0009FEF909360001092A500823019F0833079
:1001C00061F405C0E0936100909362000BC08E2F34
:1001D0008F5F809361008F5F03C08FEF809361001A
:1001E00080936200F0E04091B600242F30E0EF01F0
:1001F000CC51DF4FD901AA0FBB1FA20FB31FAA0F0B
:10020000BB1FAD50BF4F11968C9111978F5E8883A5
:1002100012961C91812F90E06AE070E00E948E0C93
:10022000862FC6EFDFEF6C9FD0016D9FB00D7C9FD6
:10023000B00D1124A10F662309F480E1EC51FF4FAA
:100240008183A283F901EE0FFF1FE20FF31FEE0F70
:10025000FF1FED50FF4F2081E4EEF0E080E04F5DA6
:1002600090E1281719F04083918392838F5F339632
:100270008530B9F7DF91CF911F9108958230D9F081
:10028000833028F4882351F0813019F50EC0843072
:10029000D9F08430B0F08530E1F419C0662319F04C
:1002A00084E68CBF08951CBE0895662311F0D89A89
:1002B0000895D8980895662311F0D99A0895D99889
:1002C00008956093A70008956093A800089560932F
:1002D000A90008951F9310E0812F60E00E943E0165
:1002E0001F5F1630C9F71F9108958CEB90E060E016
:1002F00070E048E250E00E94C50C83EF90E068E2B5
:1003000070E048E150E00E94C50C0895E4EEF0E092
:1003100081E1819390E0E33FF907D9F78FEF84BB48
:100320008CEF8ABB87EF87BB83E081BB81E08EBD0A
:1003300089B7846089BF88EE9DEF9DBD8CBD08950F
:10034000A82F8BB38C6F8BBB88B3876F88BB82B3AE
:10035000836082BB15BAA73071F1A83070F4A33066
:1003600011F1A43028F4A130D1F0A230D0F415C09E
:10037000A530E9F0A630E8F418C0AB3021F1AC307C
:1003800028F4A930E1F0AA30E0F417C0AD30F9F05C
:10039000AD30D8F0AE30F1F41CC0C7981BC09098B7
:1003A00019C0919817C0C49815C0C59813C0C698B5
:1003B00011C0C0980FC0C1980DC0C2980BC0DA9888
:1003C00009C0DB9807C0DC9805C0DD9803C0DE9843
:1003D00001C0DF982091A1003091A2002F5F3F4F14
:1003E0003093A2002093A1008A2F63E00E94820C28
:1003F0004091A3005091A4004115510559F59091E9
:10040000A5009923D1F490916000981741F0809154
:1004100061008A1721F0809162008A1729F483E134
:10042000293838074CF51AC087E221313807B4F073
:100430001092A2001092A10011C083E12838380761
:100440006CF087E221313807BCF01092A2001092C4
:10045000A100089590916000981771F4B0E0AC513C
:10046000BF4FEC91F0E0EF71F070ED59FF4F8081DC
:1004700085BB8C9185FDAB9A0895DF92EF92FF9238
:100480000F931F93D82E7A018B01CB01BA0120E084
:1004900030E0A9010E94E10A87FF0BC0E3E08D2D47
:1004A0008E9FF0011124EC51FF4F81E18083818305
:1004B00038C0C801B70120E030E040E251E40E94BA
:1004C0001F0C0E94530B0E94E50AFB01CB0164E65E
:1004D00070E00E948E0C162F462F50E08CE99FEFA3
:1004E000489F9001499F300D589F300D11242E0FC9
:1004F0003F1FC9016AE070E00E948E0C86EF9FEFFB
:10050000689F802D1124820F112309F410E1E3E08C
:100510009D2D9E9FF0011124EC51FF4F10836062CE
:10052000618382831F910F91FF90EF90DF90089578
:100530001F920F920FB60F9211242F933F934F9358
:100540005F936F937F938F939F93AF93BF93EF933B
:10055000FF9388EE9DEF9DBD8CBD8091A6000E940B
:10056000A0018091A6008F5F8093A600803110F0DB
:100570001092A600FF91EF91BF91AF919F918F9143
:100580007F916F915F914F913F912F910F900FBE8F
:100590000F901F9018958EEB83BD8DE685BD89B7B2
:1005A000806489BF08959C01B901882777FD8095F3
:1005B000982F0E94180B21E93DEE4CEF5EE30E945C
:1005C0001F0C0E94EA0A7093B0006093AF00089578
:1005D000CF93DF93C82FD0E0FE01E955FF4F808114
:1005E000882339F1DE01A655BF4F8C91FE01E158F9
:1005F000FF4F8823A9F480818F5F808350E090E0D3
:10060000841795070CF01082FE01E655FF4FDE01BE
:10061000A158BF4F8C91680F711DDB018C910DC0EB
:1006200081508C93808180FD09C0C9010E94D30252
:1006300005C0FE01E158FF4F8FEF8083C955DF4FA2
:100640008881DF91CF9108951F920F920FB60F927C
:1006500011242F933F934F935F936F937F938F93C7
:100660009F93AF93BF93EF93FF938FE784BD8091E8
:10067000AF009091B000009739F08F9A0197909356
:10068000B0008093AF0001C08F988091AD00909131
:10069000AE00009711F584E690E09093AE00809351
:1006A000AD0082E06DE770E042E024EF31E00E94AF
:1006B000E8028823B9F481E069E770E044E02AEFBA
:1006C00030E00E94E802882369F467E770E042E0C6
:1006D00024EF31E00E94E80205C001979093AE003C
:1006E0008093AD00FF91EF91BF91AF919F918F915A
:1006F0007F916F915F914F913F912F910F900FBE1E
:100700000F901F901895282F98E080E048E1382F2F
:100710003227532F517030FD84278695513009F4CC
:100720008068915011F02695F2CF089521B330B32F
:1007300081E090E002C0880F991F3A95E2F780951A
:10074000822381BB0895882319F092988A9A08958C
:1007500092988A98089580B38470089581E00E94E9
:10076000A3038FEB93E00197F1F700C0000080E056
:100770000E94A30390EA9A95F1F790B3E7E4F3E0BF
:100780003197F1F700C0000081E092FD80E008950C
:100790001F93182F81E00E94A30382E08A95F1F74E
:1007A00000C0112319F080E00E94A30380EA8A951B
:1007B000F1F780E00E94A3031F91089581E00E9459
:1007C000A30382E08A95F1F700C080E00E94A303B2
:1007D00085E28A95F1F7000090B388E78A95F1F7F2
:1007E00081E092FF80E00895FF920F931F93CF93D3
:1007F000DF93F82EC0E0D0E001E010E098010C2E6D
:1008000002C0220F331F0A94E2F78F2D82230E9429
:10081000C8032196C830D10589F7DF91CF911F9188
:100820000F91FF900895FF920F931F93CF93DF9343
:10083000C0E0D0E0FF2401E010E00E94DE03882346
:1008400041F098010C2E02C0220F331F0A94E2F7E8
:10085000F22A2196C830D10581F78F2DDF91CF91F3
:100860001F910F91FF900895DF92EF92FF920F93E7
:100870001F93CF93DF93182FEB010E94AE038823C1
:1008800079F180EF0E94F403EE2400E448EFD42EC7
:10089000D00E0E94DE03F82E0E94DE03882319F09A
:1008A000FF2069F020C0FF2051F4011728F0888153
:1008B00080FF05C0101719F0E02EFF24F3948F2D50
:1008C0000E94C803888186958883FF2011F0806884
:1008D000888301500D15E9F6002339F02196D6CF13
:1008E000EE24EA9402C03EEFE32E8E2DDF91CF91ED
:1008F0001F910F91FF90EF90DF900895BF92CF92DC
:10090000DF92EF92FF920F931F93DF93CF93CDB7B8
:10091000DEB728970FB6F894DEBF0FBECDBFF894B0
:1009200000E010E08FEF7E010894E11CF11C79E0FB
:10093000C72ED12CCC0EDD1EB02EB7010E94340480
:100940008F3F29F18E3F19F1D701F80163E0EE0FD7
:10095000FF1F6A95E1F7E454FF4F9D919193AC1509
:10096000BD05D9F7B394882329F00F5F1F4F0530D9
:10097000110511F70B2D0BC0E02FF0E053E0EE0F47
:10098000FF1F5A95E1F7E454FF4F10820F5F0530C7
:1009900098F3789428960FB6F894DEBF0FBECDBFBB
:1009A000CF91DF911F910F91FF90EF90DF90CF904B
:1009B000BF900895EF92FF920F931F93CF93DF9311
:1009C000182F092F0E94AE03882389F085E50E9425
:1009D000F403C801E92EE7017E01F82EE70118E0D3
:1009E00089910E94F4031150D9F781E001C080E0A1
:1009F000DF91CF911F910F91FF90EF900895DF92BB
:100A0000EF92FF920F931F93DF93CF93CDB7DEB793
:100A100028970FB6F894DEBF0FBECDBF8C010E94A1
:100A2000AE03882391F1C8010E94DA048EEB0E9484
:100A3000F4038E010F5F1F4FE9E0EE2EF12CEC0E58
:100A4000FD1EDD240E941304F80181938F018D2582
:100A50000E948303D82E0E151F05A1F70E941304D0
:100A6000D81699F49A8180E0698170E0682B792B1F
:100A7000882777FD8095982F0E94180B20E030E0A2
:100A800040E85DE30E941F0C04C060E070E088EC69
:100A900092EC28960FB6F894DEBF0FBECDBFCF9173
:100AA000DF911F910F91FF90EF90DF900895CF930A
:100AB000DF938091B10081508093B100882309F0C9
:100AC00057C0F89415BA809196008093B100809138
:100AD000B200C82FD0E0CE0123E0880F991F2A95DD
:100AE000E1F784549F4FFC012081CC0FDD1FCC0F18
:100AF000DD1F222349F00E94FF04CE57DF4F688399
:100B000079838A839B830AC0CE57DF4F80E090E0D1
:100B1000A8ECB2EC88839983AA83BB838091B2004E
:100B20008F5F8093B200853010F01092B200E09198
:100B3000B200F0E0A3E0EE0FFF1FAA95E1F7E45446
:100B4000FF4F8081882399F00E94AE03882379F0BB
:100B50008091B20090E0F3E0880F991FFA95E1F7D9
:100B600084549F4F0E94DA0484E40E94F403789432
:100B7000DF91CF9108950F931F931AE001E0009346
:100B8000B1000E9457058FEF90E7A2E0815090409E
:100B9000A040E1F700C00000115089F71F910F91AC
:100BA0000895CF93DF93C7E9D0E080E0999189273A
:100BB0000E94830390E0CE39D907C1F780939E004D
:100BC0008B9888E085BF8BB780688BBFDF91CF9112
:100BD000089588EE93E002C0019711F08399FCCF4D
:100BE00085E38A95F1F7000081E0839B80E020E0B7
:100BF00030E006C02F5F3F4F93E0283E390711F0E9
:100C0000839BF8CF08950F931F9388EE93E002C063
:100C1000019711F0839BFCCF08E010E016950E942D
:100C2000E905811110680150C9F7812F1F910F91BB
:100C3000089528EE33E003C02150304011F083992D
:100C4000FBCF8B98882309F48B9A80EA8A95F1F779
:100C50008B9888EE93E002C0019711F0839BFCCF44
:100C600008950F931F93082F28EE33E003C02150FF
:100C7000304011F0839BFBCF18E0802F81700E94E1
:100C8000190606951150C9F71F910F910895CF923B
:100C9000DF92EF92FF920F931F93CF93DF9388EE33
:100CA00093E002C0019711F0839BFCCF80E58A9509
:100CB000F1F78B9A87EC90E00197F1F700C0000004
:100CC0008B9888EE93E002C0019711F0839BFCCFD4
:100CD0000E9403068C3E31F0803F21F0853509F0FB
:100CE0007AC027C08C3E29F48091B500882309F092
:100CF00072C010E0EE24E394E12FF0E0E956FF4FDC
:100D0000C08008E0FF24F394FC208F2D0E94190678
:100D10008F2D8E250E9419060E94E9058F1509F076
:100D20005AC0015011F0C694EDCF1F5F183021F763
:100D300052C0C7E9D0E00E9403069991891709F0D3
:100D40004AC090E0CF39D907B1F70E940306803A34
:100D500009F041C0C2E8D0E010E0C990D990E99014
:100D6000F990C701B6010E94CE0A0E94EA0A062F36
:100D700070E0882777FD8095982F0E94180B9B01C3
:100D8000AC01C701B6010E94690A20E030E048ECDE
:100D900052E40E941F0C0E94530B0E94EA0AF62E96
:100DA000802F0E943106802F81270E948303182FF5
:100DB0008F2D0E9431068F2D81270E948303182FCB
:100DC00080E0C639D80749F6812F0E94310610927B
:100DD000B4001092B300DF91CF911F910F91FF905B
:100DE000EF90DF90CF9008951F920F920FB60F9261
:100DF00011248F9305B602FE04C010929F0088E074
:100E000009C08DEC82BF81E080939F0089B781602B
:100E100089BF8CE085BF8F910F900FBE0F901F9000
:100E200018951F920F920FB60F9211242F933F9394
:100E30004F935F936F937F938F939F93AF93BF93E2
:100E4000EF93FF938091A0008823D9F48091B300A1
:100E50009091B4002AEE8036920750F42091B500AC
:100E6000222331F401969093B4008093B30009C01B
:100E700080919F00882329F010929F0015BA0E944C
:100E80004706FF91EF91BF91AF919F918F917F9115
:100E90006F915F914F913F912F910F900FBE0F90E7
:100EA0001F9018951F93182F8091A0008A3011F081
:100EB0000E946A01112309F44CC08091BB00882371
:100EC00009F072C081E08093BB008091A00088236C
:100ED000B1F484E18093A000E4EEF0E080E181933E
:100EE00090E0E33FF907D9F70E947E040E94BB051A
:100EF00085E18093A0001092600085E027C01092E9
:100F0000A0008FEF9FEF0E948D008FEF8093600015
:100F100080936100809362001092A5001092A4005B
:100F20001092A300E4EEF0E080E18193A0E0E33FC3
:100F3000FA07D9F70E9475018FEF99E6A8E1815071
:100F40009040A040E1F700C0000089E18093960046
:100F50002BC08091A0008A3061F08531B1F08823E8
:100F600019F58AE08093A00080E090E00E948D0057
:100F70001BC08091B7008F5F8093B700843010F062
:100F80001092B7000E94AE000FC081E090E0209167
:100F9000A3003091A4002115310511F080E090E00C
:100FA0009093A4008093A3001F9108958091600006
:100FB0009091A0009A30C1F0953109F489C099232D
:100FC00009F09FC08091B900882309F49AC08091EC
:100FD000BA00882309F495C081E09091B500911181
:100FE00080E08093B50008958091B7008130B9F01A
:100FF000813030F0823081F1833009F082C049C005
:101000008091B600882311F485E001C0815080935F
:10101000B6008091B60090E00E948D000895809106
:10102000B60090E0FC01EE0FFF1FE80FF91FEE0F76
:10103000FF1FED50FF4F2081222311F0215001C0EE
:1010400024E0FC01EE0FFF1FE80FF91FEE0FFF1F5A
:10105000ED50FF4F208339C08091B60090E0FC0135
:10106000EE0FFF1FE80FF91FEE0FFF1FED50FF4FB0
:101070002181223011F02F5F01C020E0FC01EE0F32
:10108000FF1FE80FF91FEE0FFF1FED50FF4F2183E9
:101090001CC08091B60090E0FC01EE0FFF1FE80F2E
:1010A000F91FEE0FFF1FED50FF4F22812A3511F07F
:1010B0002F5F01C02AE0FC01EE0FFF1FE80FF91FB0
:1010C000EE0FFF1FED50FF4F22830E94AE000895E8
:1010D000882311F494E002C0982F915090936000FF
:1010E0001092A2001092A1002091A3003091A400C0
:1010F0002115310531F06091600090E070E00E94B0
:1011000049000895809160009091A0009A30C1F04C
:10111000953109F48AC0992309F0A1C08091B900E2
:10112000882309F49CC08091BA00882309F497C0F1
:1011300081E09091B500911180E08093B500089511
:101140008091B7008130C1F0813030F0823089F178
:10115000833009F084C04AC08091B600853019F40C
:101160001092B60003C08F5F8093B6008091B600E6
:1011700090E00E948D0008958091B60090E0FC01FF
:10118000EE0FFF1FE80FF91FEE0FFF1FED50FF4F8F
:101190002081243011F02F5F01C020E0FC01EE0F10
:1011A000FF1FE80FF91FEE0FFF1FED50FF4F2083C9
:1011B00039C08091B60090E0FC01EE0FFF1FE80FF0
:1011C000F91FEE0FFF1FED50FF4F2181222311F079
:1011D000215001C022E0FC01EE0FFF1FE80FF91FB4
:1011E000EE0FFF1FED50FF4F21831CC08091B60012
:1011F00090E0FC01EE0FFF1FE80FF91FEE0FFF1F3D
:10120000ED50FF4F22812A3011F0215001C02AE514
:10121000FC01EE0FFF1FE80FF91FEE0FFF1FED504F
:10122000FF4F22830E94AE000895843019F410927B
:10123000600004C0982F9F5F909360001092A200FE
:101240001092A1002091A3003091A4002115310536
:1012500031F06091600090E070E00E9449000895D4
:10126000AF92BF92CF92DF92EF92FF921F93CF93F4
:10127000DF93C3EFD0E010E0E881EE2309F469C00A
:101280008981813021F0823009F063C02EC0F0E006
:10129000EE0FFF1FEE0FFF1FEE57FF4FA080B18034
:1012A000C280D380EA80FF24B701882777FD80952C
:1012B000982F0E94180B9B01AC01C601B5010E943A
:1012C0001B0C87FF2EC0B70162507040882777FD46
:1012D0008095982F0E94180B9B01AC01C601B501A7
:1012E0000E94E10A87FF35C030C0F0E0EE0FFF1F1B
:1012F000EE0FFF1FEE57FF4FA080B180C280D3805A
:10130000EA80FF24B701882777FD8095982F0E94F7
:10131000180B9B01AC01C601B5010E94E10A181629
:101320001CF0812F61E013C0B7016E5F7F4F8827EB
:1013300077FD8095982F0E94180B9B01AC01C60188
:10134000B5010E941B0C181624F4812F60E00E9446
:101350003E011F5F2696163009F08ECFDF91CF91A8
:101360001F91FF90EF90DF90CF90BF90AF900895C6
:101370008CEB90E060E070E048E250E00E94B50C39
:1013800083EF90E068E270E048E150E00E94B50C25
:10139000E3EFF0E08AE09081953008F010829181CF
:1013A000933008F0118292819B3508F082839281FC
:1013B0009A3008F48283369691E0E731F90759F7BD
:1013C00008951F93CF93DF930E94B8090E9486016E
:1013D0000E94CB020E9496030E94BB0589E1809384
:1013E00096000E94D10582B3806782BB8BE683BFE3
:1013F00089B7816089BFBB9A8AB383608ABB7894BE
:1014000088EC90E00E94D3028091B80084990AC0D1
:10141000853120F081E00E9452070EC08F5F8093DB
:10142000B8000AC08150843118F480E00E9452074D
:101430001092B8001092BB008091B900859909C044
:101440008B3018F00E94D6070BC08F5F8093B900D5
:1014500007C081508A3010F40E94D6071092B9005C
:101460008091BA00869909C08B3018F00E948208DA
:101470000BC08F5F8093BA0007C081508A3010F490
:101480000E9482081092BA008091A000882311F077
:10149000853179F40E945705C2E8D0E010E0499107
:1014A000599169917991812F0E943D021F5F1530FA
:1014B000B1F78091A000882311F40E9430098FE7D2
:1014C00098E3A1E081509040A040E1F700C0000007
:1014D0009BCF5058BB27AA270ED05CC14DD130F00E
:1014E00052D120F031F49F3F11F41EF442C10EF4AA
:1014F000E095E7FB0FC1E92F5ED180F3BA176207D1
:1015000073078407950718F071F49EF58DC10EF4EA
:10151000E0950B2EBA2FA02D0B01B90190010C0103
:10152000CA01A0011124FF27591B99F0593F50F41B
:10153000503E68F11A16F040A22F232F342F442773
:10154000585FF3CF469537952795A795F04053956B
:10155000C9F77EF41F16BA0B620B730B840BBAF03B
:101560009150A1F0FF0FBB1F661F771F881FC2F7A6
:101570000EC0BA0F621F731F841F48F487957795BA
:101580006795B795F7959E3F08F0B3CF9395880F71
:1015900008F09927EE0F9795879508952ED180F042
:1015A0009F3740F491110EF440C160E070E080E894
:1015B0009FE3089526F01B16611D711D811DB0C0AB
:1015C000CAC084D008F481E0089504D06894B111B1
:1015D0002CC10895F8D088F09F5790F0B92F992723
:1015E000B751A0F0D1F0660F771F881F991F1AF02E
:1015F000BA95C9F712C0B13081F016D1B1E00895A3
:1016000013C1672F782F8827B85F39F0B93FCCF323
:10161000869577956795B395D9F73EF49095809523
:10162000709561957F4F8F4F9F4F0895E89409C043
:1016300097FB3EF490958095709561957F4F8F4F05
:101640009F4F9923A9F0F92F96E9BB279395F6951B
:10165000879577956795B795F111F8CFFAF4BB0F99
:1016600011F460FF1BC06F5F7F4F8F4F9F4F16C0FD
:10167000882311F096E911C0772321F09EE8872F87
:10168000762F05C0662371F096E8862F70E060E043
:101690002AF09A95660F771F881FDAF7880F9695BC
:1016A000879597F90895A9D080F09F3740F491115C
:1016B0000EF0BBC060E070E080E89FEB089526F478
:1016C0001B16611D711D811D2BC045C0990F00089F
:1016D000550FAA0BE0E8FEEF16161706E807F90704
:1016E000C0F012161306E407F50798F0621B730B9F
:1016F000840B950B39F40A2661F0232B242B252B20
:1017000021F408950A2609F4A140A6958FEF811DC2
:10171000811D089597F99F6780E870E060E0089563
:10172000882371F4772321F09850872B762F07C0F8
:10173000662311F499270DC09051862B70E060E06C
:101740002AF09A95660F771F881FDAF7880F96950B
:10175000879597F908959F3F31F0915020F4879530
:1017600077956795B795880F911D9695879597F909
:1017700008959FEF80EC089500240A94161617062A
:1017800018060906089500240A9412161306140672
:1017900005060895092E0394000C11F4882352F0D5
:1017A000BB0F40F4BF2B11F460FF04C06F5F7F4F8D
:1017B0008F4F9F4F089557FD9058440F551F59F074
:1017C0005F3F71F04795880F97FB991F61F09F3F2E
:1017D00079F087950895121613061406551FF2CF57
:1017E0004695F1DF08C0161617061806991FF1CFA7
:1017F00086957105610508940895E5DFA0F0BEE7C0
:10180000B91788F4BB279F3860F41616B11D672FEF
:10181000782F8827985FF7CF869577956795B11DC4
:1018200093959639C8F30895E894BB2766277727E0
:10183000CB0197F908954ADF08F48FEF08950BD094
:10184000A9CF9ADF28F09FDF18F0952309F062CF27
:1018500090CF1124EACFAFDFA0F3959FD1F3950F7E
:1018600050E0551F629FF001729FBB27F00DB11D24
:10187000639FAA27F00DB11DAA1F649F6627B00DB4
:10188000A11D661F829F2227B00DA11D621F739F9D
:10189000B00DA11D621F839FA00D611D221F749FAB
:1018A0003327A00D611D231F849F600D211D822FF2
:1018B000762F6A2F11249F5750408AF0E1F0882339
:1018C0004AF0EE0FFF1FBB1F661F771F881F915046
:1018D0005040A9F79E3F510570F01CCFA6CF5F3F47
:1018E000ECF3983EDCF3869577956795B795F79579
:1018F000E7959F5FC1F7FE2B880F911D9695879501
:1019000097F90895991B79E004C0991F961708F07C
:10191000961B881F7A95C9F78095089597FB092E25
:1019200007260AD077FD04D00CD006D000201AF488
:10193000709561957F4F0895F6F7909581959F4F2B
:101940000895AA1BBB1B51E107C0AA1FBB1FA61706
:10195000B70710F0A61BB70B881F991F5A95A9F758
:1019600080959095BC01CD010895DC01CB01FC016F
:10197000E199FECF06C0FFBBEEBBE09A31960DB2F7
:101980000D9241505040B8F70895DC01A40FB51FE7
:101990004150504048F0CB01840F951F2E910E947A
:1019A000D60C41505040D0F70895262FE199FECF34
:1019B0009FBB8EBBE09A01970DB2021631F02DBB92
:1019C0000FB6F894E29AE19A0FBE0895F894FFCF0B
:1019D000FFFFFFB7A0C7E6F07677A4F7F6F5731719
:1019E000E3575500409423023C0201023C0202FFEF
:1019F000FFFF0000C8C20000C8C20000C8C200004B
:101A0000C8C20000C8C201E00000000000010001DF
:00000001FF
