:1000000009C0F6C020C015C11EC01DC01CC01BC049
:100010001AC019C011241FBECFE9CDBF10E0A0E661
:10002000B0E0ECE0F3E002C005900D92A836B10715
:10003000D9F710E0A8E6B0E001C01D92AA36B107DA
:10004000E1F71ED161C1DCCF282F98E080E048E1C4
:10005000382F3227532F517030FD84278695513029
:1000600009F48068915011F02695F2CF089588EE3A
:1000700093E002C0019711F0B199FCCF80E48A951A
:10008000F1F781E0B19B80E020E030E006C02F5F17
:100090003F4F93E0283E390711F0B19BF8CF089508
:1000A0000F931F9388EE93E002C0019711F0B19B6C
:1000B000FCCF08E010E01695DADF811110680150DE
:1000C000D1F7812F1F910F91089528EE33E003C0DF
:1000D0002150304011F0B199FBCFB998882309F431
:1000E000B99A80EC8A95F1F7B99888EE93E002C04E
:1000F000019711F0B19BFCCF08950F931F93082F28
:1001000028EE33E003C02150304011F0B19BFBCF0B
:1001100018E0802F8170D9DF06951150D1F71F911B
:100120000F910895DF92EF92FF920F931F93CF9359
:10013000DF9388EE93E002C0019711F0B19BFCCFF2
:1001400080E68A95F1F7B99A80EF90E00197F1F790
:10015000B99888EE93E002C0019711F0B19BFCCFF3
:100160009FDF8C3E29F0803F19F08535C9F522C00C
:10017000803F21F080916900882391F110E0DD2417
:10018000D394E12FF0E0E05AFF4FF08008E0EE2436
:10019000E394EF208E2D99DF8E2D8D2596DF67DF7E
:1001A0008E15F1F4015011F0F694F1CF1F5F183065
:1001B00041F716C0C0E6D0E073DF9991891781F44A
:1001C00090E0C836D907C1F76BDF803A49F4109246
:1001D00069008091680091DF8091680035DF8DDFD4
:1001E000DF91CF911F910F91FF90EF90DF900895D5
:1001F0001F920F920FB60F9211248F9305B600FE37
:1002000007C013BE88B7826088BF82E085BF0BC07D
:1002100083EC82BF88B7826088BF89B7826089BF5C
:1002200083E085BF83BF8F910F900FBE0F901F900B
:1002300018951F920F920FB60F9211242F933F9390
:100240004F935F936F937F938F939F93AF93BF93DE
:10025000EF93FF9313BE88B7826088BF63DFFF917F
:10026000EF91BF91AF919F918F917F916F915F912E
:100270004F913F912F910F900FBE0F901F901895A7
:10028000CF93DF93C0E6D0E080E099918927DCDE50
:1002900090E0C736D907C9F7809367008FEF87BB17
:1002A000BC9886B1876C86B982E687B9B99888B759
:1002B000826088BF8AB780648ABF82E085BF8BB7BF
:1002C00080648BBF8FEB9DE50197F1F700C00000C4
:1002D000789441E0C39B02C0C39801C0C39A80E1F7
:1002E00097E220E0369A3699FECF35B1231708F40D
:1002F000232F0197B9F780916800821759F3209353
:0C030000680040936900E6CFF894FFCF3E
:08030C00F500000000000100F3
:00000001FF
