:1000000009C02EC120C04DC11EC01DC01CC01BC0D8
:100010001AC019C011241FBECFE9CDBF10E0A0E661
:10002000B0E0E2E7F3E002C005900D92A836B10718
:10003000D9F710E0A8E6B0E001C01D92AB36B107D9
:10004000E1F756D194C1DCCF28E090E048E1392FA8
:10005000382730FF04C094279695906801C0969584
:10006000215011F08695F3CF892F0895B19904C0DE
:1000700007C0019719F404C087EE93E0B199F9CF56
:1000800080E48A95F1F781E0B19B80E0B19B05C0E7
:1000900008952150304019F4089527EE33E0B19BC4
:1000A000F8CF08950F931F93B19B06C008E010E0AE
:1000B0000CC0019719F407C087EE93E0B19BF9CF0C
:1000C00008E010E002C008E010E01695CFDF8111D3
:1000D00010680150D1F7812F1F910F910895B199A8
:1000E00005C008C02150304019F404C027EE33E0A9
:1000F000B199F8CFB998882309F4B99A80EC8A9518
:10010000F1F7B998B19B04C00895019719F40895C7
:1001100087EE93E0B19BF9CF08950F931F93182FAB
:10012000B19B09C008E00EC02F5F3F4F83E0283E1F
:10013000380719F406C021E030E0B19BF5CF08E0A4
:1001400001C008E0812F8170CADF16950150D1F7F8
:100150001F910F910895AF92BF92CF92DF92EF92CD
:10016000FF920F931F93CF93DF93B19B04C007C0FF
:10017000019719F404C087EE93E0B19BF9CF80E6B4
:100180008A95F1F7B99A80EF90E00197F1F7B99865
:10019000B19B04C007C0019719F404C087EE93E037
:1001A000B19BF9CF7FDF8C3E31F0803F21F0853568
:1001B00009F04BC02AC0803F69F4C0E6D0E0AA2411
:1001C000BB246894A3F8AC0EBD1ECC24EE24E394AB
:1001D000DC2C05C080916800882379F736C0F9903F
:1001E0001C2D0F2D0170802F7ADF8E2D01118D2D8A
:1001F00076DF3CDF801749F51F5F183011F0F69469
:10020000F0CFCA15DB0559F720C0C0E6D0E08E015B
:10021000085F1F4F47DF99918917B9F4C017D107BD
:10022000C9F740DF803A89F4109268008091690034
:1002300074DF8091690008DF182F80916A006DDFFC
:1002400080916A00812700DF68DFDF91CF911F91E5
:100250000F91FF90EF90DF90CF90BF90AF900895F7
:100260001F920F920FB60F9211248F9305B600FEC6
:1002700007C013BE88B7826088BF82E085BF0BC00D
:1002800083EC82BF88B7826088BF89B7826089BFEC
:1002900083E085BF83BF8F910F900FBE0F901F909B
:1002A00018951F920F920FB60F9211242F933F9320
:1002B0004F935F936F937F938F939F93AF93BF936E
:1002C000EF93FF9313BE88B7826088BF44DFFF912E
:1002D000EF91BF91AF919F918F917F916F915F91BE
:1002E0004F913F912F910F900FBE0F901F90189537
:1002F0000F931F93CF93DF93C0E6D0E08E01095F89
:100300001F4F80E0999189279FDEC017D107D1F751
:10031000809367008FEF87BBBC9886B1876C86B9E6
:1003200082E087B9B99898B7926098BF9AB79064FD
:100330009ABF85BF8BB780648BBF789428EE33E07B
:10034000E9E6F0E0DF01119641E0C39B02C0C398EB
:1003500001C0C39AC901369A3699FECF0197D9F7E1
:1003600084B195B190838C9340936800EECFF8945C
:02037000FFCFBD
:08037200F5000000000001008D
:00000001FF
